:020000040801F1
:1000000098850020D5300108DD300108DF30010877
:10001000E1300108E3300108E5300108E73001086C
:10002000E7300108E7300108E7300108E730010850
:10003000E7300108E7300108EBA8010831A8010802
:10004000A5330108AF330108B9330108C3330108F0
:10005000CD330108D7330108E1330108EB33010840
:10006000F5330108FF33010809340108133401088E
:100070001D34010827340108313401083B340108DC
:10008000453401084F34010859340108633401082C
:100090006D34010877340108813401088B3401087C
:1000A000953401089F340108A9340108B3340108CC
:1000B000BD340108C7340108D1340108DB3401081C
:1000C000E5340108EF340108F9340108033501086B
:1000D0000D35010817350108213501082B350108B8
:1000E000353501083F350108493501085335010808
:1000F0005D35010867350108713501087B35010858
:10010000853501088F35010899350108A3350108A7
:10011000AD350108B7350108C1350108CB350108F7
:10012000D5350108DF350108E9350108F335010847
:10013000FD35010807360108113601081B36010894
:10014000253601082F3601083936010843360108E3
:100150004D36010857360108613601086B36010833
:10016000753601087F360108893601089336010883
:100170009D360108A7360108B1360108BB360108D3
:10018000C536010800F002F800F0B2F80AA090E8C5
:10019000000C82448344AAF10107DA4501D100F042
:1001A000A7F8AFF2090EBAE80F0013F0010F18BF5D
:1001B000FB1A43F001031847340101005401010008
:1001C0000A444FF0000C10F8013B13F0070408BF7D
:1001D00010F8014B1D1108BF10F8015B641E05D01B
:1001E00010F8016B641E01F8016BF9D113F0080FD0
:1001F0001EBF10F8014BAD1C0C1B09D16D1E58BF62
:1002000001F801CBFAD505E014F8016B01F8016B98
:100210006D1EF9D59142D6D370470000002300240B
:1002200000250026103A28BF78C1FBD8520728BF06
:1002300030C148BF0B6070476E290DF0758470297E
:100240000DF0C68566290FF0C58165290FF0C281C2
:1002500067290FF0BF816129AFF3008003681B0A93
:1002600028BF41F0800169290DF0228464290DF036
:100270001F8475290DF01C846F290DF05185782994
:100280000DF09285E9290DF0E984E4290DF0E6846A
:10029000F5290DF0E384EF290DF04E85F8290DF0D6
:1002A00091850368DB0928BF41F0800163290EF0C6
:1002B0001B8173290EF02081E3290EF02B81F32995
:1002C0000EF03081002070471FB50FF046F90EF098
:1002D0007BF90400002000210EF014FF401C606038
:1002E000002000210EF0F8FEE0601FBD10B510BD2B
:1002F0000EF03CF91146FFF7E7FF00F0D5FC0EF0D9
:1003000019FA03B4FFF7F2FF03BC0EF061FA70476D
:1003100070477047704770477047704710B500F0DE
:10032000CEF810BD7FB54FF000060AF0B9FA0646C8
:100330004FF00000FE49087030460AF0B5FA4FF061
:10034000000406E0FB48005D0DF8040004F1010024
:10035000C4B2042CF6DB4FF0000409E0F548401D60
:10036000015D04F104000DF8001004F10100C4B2B5
:10037000032CF3DB4FF0000409E0EE480830015D88
:1003800004F107000DF8001004F10100C4B2092CBB
:10039000F3DBE94800794FEA00154FF010022946D7
:1003A000684604F0B3F8E448007900F10100E2493E
:1003B0000871084600791F2802DD4FF0010008711E
:1003C000DD48407900F10100DB4948710846407979
:1003D0001F2802DD4FF01F0048710621D64800F0AB
:1003E000B7FCD549C88008460079087308464079AB
:1003F00048730846C088C8814FF000054FF01002CE
:100400002946CD4804F082F80AF04AFA06464FF031
:100410000100C749087030460AF046FA7FBD70B542
:100420004FF00004C5480579C548007800F1010087
:10043000C34908700846007809283FD10AF030FA0D
:1004400004464FF00A00BE49087018E0BC48007826
:1004500028444FF00A0190FBF1F201FB1201B94868
:10046000425CB7480078A0F10100B24901F10801EF
:100470000A54B3480078A0F10100B1490870B048AF
:1004800000780028E2DC20460AF00EFA4FF0000067
:10049000AB490870A6480078012805D1AA48007821
:1004A000012801D1FFF73EFF4FF00000A649087078
:1004B000A648007B20F00100A449087370BD10B568
:1004C000A348007F00287DD0A148D0F8A00000F10B
:1004D00001009F49C1F8A0000846D0F8B40000F11F
:1004E0000100C1F8B4009B48008800F1010099495F
:1004F0000880084600880A2817D19548D0F82001BE
:10050000401C0AD19249C1F820010846D0F82401C4
:1005100000F10100C1F8240107E08D48D0F8200166
:1005200000F101008A49C1F820018A480088322878
:100530007DD14FF00000874908808448C1797F4809
:100540000279804881548148007B38B17F48C17965
:100550007A4802797B488154FFF761FF7748007938
:10056000082804DD4FF000007449087105E0734865
:10057000007900F10100714908717448007A6F49EF
:100580000978704A283A50546C480078082804DDED
:100590004FF000006949087005E06848007800F1F4
:1005A0000100664908706948417A644842786548A4
:1005B0001E38815461484078082806DD4FF000005D
:1005C0005E4900E035E0487005E05C48407800F1A5
:1005D00001005A4948705D48817A584882785948E4
:1005E0001438815455488078082804DD4FF0000005
:1005F0005249887005E05148807800F101004F4968
:1006000088705248C17A4D48C2784E480A388154A1
:100610004A48C078082804DD4FF000004749C870F8
:1006200005E04648C07800F101004449C87000F078
:1006300041FF10BD4FF001004549C8707047464862
:10064000008800F101004449088008460088FA2823
:100650001DDB3F48B0F894000A2803DA4FF0010090
:100660003B49C8703A48B0F89E000A2803DA4FF0B8
:1006700001003749C8704FF000003549A1F89400D7
:1006800001463348A0F89E10084633490880704759
:100690002DE9F84F4FF00009CA464FF010000090C6
:1006A000DFF894806A464FF00001404603F03DFDBC
:1006B0004046007861281ED14046407862281AD111
:1006C00040468078522816D14046C078512812D131
:1006D0004046007920280EDA4046007900280ADDDD
:1006E0000621404600F034FB07464046C088B84229
:1006F00001D14FF001091048007A612837D10E4826
:10070000407A622833D10C48807A52282FD10A4887
:10071000C07A51282BD10848007B202827DA0648C8
:10072000007B002823DD06210348083016E0000086
:1007300006000020C42E0020E42E00208C010020A2
:10074000000000203D30002010000020082F002075
:10075000982D0020020000200400002000F0F8FA8C
:100760000746FE48C089B84201D14FF0010AFB4D4F
:1007700005F10806B9F1000F12D04FF0000406E0B1
:1007800015F8010B06F8010B04F10100C4B2082CA6
:10079000F6DB08221146F148083003F0B7FE40E0CE
:1007A000BAF1000F12D04FF0000406E016F8010B6A
:1007B00005F8010B04F10100C4B2082CF6DB082295
:1007C0000021E648083003F0A1FE2AE04FF0610066
:1007D000E24908704FF0620048704FF05200887094
:1007E0004FF05100C8704FF0010008714FF0000049
:1007F00048714FF00601D94800F0AAFAD749C880DD
:100800004FF0000406E015F8010B06F8010B04F1A7
:100810000100C4B2082CF6DB10220021CF4803F0FF
:1008200075FEBDE8F88F2DE9F0414FF000054FF45B
:100830008072CB49CB4800F02BFE0E21C848103007
:1008400000F086FA0446C648C07FC549897F00EBA0
:10085000012087B2BC4226D1C148007C712822D138
:10086000BF48407C61281ED1BD48807C42281AD1F7
:10087000BB48C07C552816D1B948007D012812D14B
:10088000B748407D78B9B648807D20280BD1B44860
:10089000C07D142807D1B248007E052803D1B04896
:1008A000407E072833D04FF07100AD4908744FF0F7
:1008B000610048744FF0420088744FF05500C874CE
:1008C0004FF0010008754FF0000048754FF0200010
:1008D00088754FF01400C8754FF0050008764FF08A
:1008E000070048764FF000008876C876087748778A
:1008F0004FF00E019A4800F1100000F029FA04466A
:100900004FEA242096498877CC774FF0010575B1DE
:100910001021084600F0D6FC054645B9914E4FF42B
:1009200080728F49304600F05AFD054600BFBDE891
:10093000F08100B587B0032000214FF480628A4B1C
:10094000CDE90132CDE9031015200346874A009016
:10095000874808F038FE06AA86A1152008F0B6FFE1
:10096000032000214FF40072844BCDE90132CDE920
:1009700003101A200346824A0090824808F023FEA2
:1009800006AA81A11A2008F0A1FF032000214FF43C
:1009900000727F4BCDE90132CDE903100B200346F5
:1009A0007C4A00907C4808F00EFE06AA7BA10B2032
:1009B00008F08CFF032000214FF40072784BCDE942
:1009C0000132CDE903101B200346764A0090764899
:1009D00008F0F9FD06AA75A11B2008F077FF07B003
:1009E00000BD70472DE9F0414FF01E064FF48072B4
:1009F0005B495C4800F04CFD31465948203000F01E
:100A0000A7F9074606F121005549095C06F12000C7
:100A1000534A105C01EB002085B2AF4212D04FF078
:100A200000040CE04FF00001624820F81410624905
:100A300000F10C0040F8241004F10100C4B2052CB0
:100A4000F0DB53E04FF000044EE04FF0240000EBE9
:100A500084004349095C4FF0240000EB840000F15E
:100A600001003F4A105C01EB002081B2514820F8A0
:100A700014104FF0240000EB840000F10200114636
:100A8000095C4FF0240000EB840000F10300105CCF
:100A900001EB002085B2B5F5966F02DCB5F5617FFC
:100AA00006DA4549434800F10C0040F8241018E0EC
:100AB000242101EB8401891C294A525C242101EB89
:100AC0008401C91C264B595C02EB01200EF01EFC70
:100AD00080464FF087410EF037FB36490C3141F824
:100AE000240004F10100C4B2052CAEDBBDE8F081A6
:100AF0004FF050002F49A1F1FC0108704FF00500A4
:100B000081F81C01704703F0D0FD0F2003F0AFFE09
:100B1000FFF7EEFFFFF766FF03F0C7FD04F013FCDD
:100B200005F0CDFA02F084FB06F0F4FE23A002F0FB
:100B3000FCFEFFF756FF2AA002F0F7FEFFF7F9FED2
:100B400003F0B3FD4FF47A7009F090F803F0ADFDB7
:100B50000F2003F069FE4FF47A7051E0E42E00207C
:100B6000152F002000800008980500209415002013
:100B7000891A0108557361727431000098150020BC
:100B8000941D0020AD240108557361727436000075
:100B9000981D002094250020B91701084144430006
:100BA00098250020942D0020011A01084932435F46
:100BB00031000000942E0020008070404372656177
:100BC00074696E67204170706C69636174696F6EDF
:100BD000204576656E74732E2E2E0A0D00000000DF
:100BE0004372656174696E67204170706C696361FE
:100BF00074696F6E205461736B732E2E2E0A0D0074
:100C000009F034F803F051FDFFF70DFEFFF740FD4A
:100C10004FF001003E4908771CE0FFF710FD3C480B
:100C2000D0F8A0003B49884207D34FF00100384973
:100C3000C8704FF00000C1F8A0003548C07808B96E
:100C400003F033FD344800783149C1F8F0000A2040
:100C500009F00CF8E1E73148314948603148C1F802
:100C60001C01314888613148086340F2FF30A1F827
:100C70006000A1F86C002E492948C1622D494164E9
:100C800040F2FF31A0F86A104FF0FF01A0F8761093
:100C9000704710B54FF496711D480CF07BFE322161
:100CA00025480CF055FE10BD10B586B04FF010046D
:100CB00002F009FBFFF7EDFF00F04EF902F026FA13
:100CC000FFF7C9FF03F0F1FC03F0EFFC04F03BFB7E
:100CD00006F011FD02F04BFA032000212201174B10
:100CE000CDE90132CDE9031037200346144A0090C4
:100CF000144808F068FC05AA13A1372008F0E6FDA7
:100D000003F0D3FC06F0EEFD012006B010BD00009C
:100D1000982D0020E09304001C0100206830002082
:100D2000604E00208F180108143100201435002077
:100D30003443002034470020153000209801002063
:100D400094050020070B01085374617274000000C1
:100D500030B502464FF0000000BF12F8013B83EAB5
:100D60002024724D35F8144084EA0024A0B2A1F189
:100D70000104A4B22100F0D130BD70B50346104685
:100D800000BF13F8014B84EA2025684E36F8155051
:100D900085EA0025A8B2A1F10105ADB22900F0D184
:100DA00070BD2DE9F04705460F461646102F2ED18F
:100DB0004FF000044FEA660800BF288800F0FF0AE1
:100DC00028884FEA202905F102058AEA242057499C
:100DD00031F8100080EA042084B289EA242031F836
:100DE000100080EA042084B2A8F1010080B25FEA1A
:100DF0000008E2D116F0010F10D0288880EA2420E4
:100E0000C0B231F8100080EA042084B206E0082F56
:100E100004D131462846FFF79BFF04462046BDE833
:100E2000F08770B50246CC78ACB94C78A4F10104D7
:100E30003F4D55F824508C78A4F101043D4E56F8EE
:100E400024402C4415783C4E56F825502C445578B7
:100E500004EB050039E0CC784FEAA405A4EB850447
:100E6000A3B2C3B9CC78354D55F824404D78344EF3
:100E700056F8255025448C78A4F101042D4E56F8DF
:100E800024402C4415782C4E56F825502C44557887
:100E900004EB050019E0CC78284D55F824504C7827
:100EA000A4F10104224E56F8244025448C78A4F184
:100EB0000104204E56F824402C4415781E4E56F856
:100EC00025502C44557804EB050070BD70B50246E2
:100ED000CC784FEAA405A4EB8504A3B233B94C78CF
:100EE000A4F10104174D55F8240005E04C78A4F155
:100EF0000104154D55F824005478C4EB04144FEA4E
:100F00008403CC78114D55F824508C78A4F1010459
:100F10000F4E56F824402C4415780E4E56F82550A6
:100F20002C441C4495782C44204470BDD8F501080D
:100F300098F90108C8F9010844FA0108D8F701082E
:100F400068F9010834FC010864FC0108A4FA0108EE
:100F500094FC010810FD01084FF000000BE04FF079
:100F60000001D04A1154D04A1154D04A22F810102E
:100F700000F10101C8B20628F1DB704770472DE986
:100F8000F04180460C466078217800EB012085B264
:100F9000C64830F8181005F10200814202D0032043
:100FA000BDE8F08126464FF008013046FFF7D0FE3D
:100FB0000746A668A5F1080081B23A463046FFF719
:100FC000DCFE0746A5F10800305CB0EB272F04D10A
:100FD000E81F305CF9B2884201D00420E0E700202D
:100FE000DEE72DE9F04704460F46B14830F814908B
:100FF000B04830F81460B14502D10020BDE8F08758
:10100000B86808B90220F9E7A948303850F824A098
:101010008EE04FF00001A74800F1300040F82410A6
:10102000304606F101018EB21AF80050A04800F1D6
:10103000180030F8140000EA06069A48005D0028FF
:1010400060D0102D10D19848005D18B928469649F7
:1010500008556DE03A46294620460DF097FF4FF0BF
:1010600000009149085563E08F48005D102843D186
:10107000022D02D0032D33D105E03A46012120464E
:101080000DF068FF32E039462046FFF778FF8046D2
:10109000B8F1000F19D187485038005D022809DAED
:1010A00084485038005D00F10100C1B28148A0F1D0
:1010B00050000155804850F82410384688473A4679
:1010C000002120460DF046FF36E03A4641462046D4
:1010D000FFF754FF3A46002120460DF03BFF05E0A4
:1010E0003A46294620460DF051FF00BF00BF4FF0A1
:1010F00000006D4908551BE03A46294620460DF090
:1011000045FF15E0102D03D12846674908550FE02B
:10111000022D09D16448005D102805D13A4601210D
:1011200020460DF017FF03E04FF000005E49085520
:10113000B1457FF46EAF00BF5E4820F81460002018
:101140005CE72DE9F05F83460C465948A0F1180092
:1011500050F82B6027466078217800EB01201FFAB9
:1011600080F94FF008013846FFF7F2FD8246A76884
:10117000A9F1080081B252463846FFF7FEFD8246CB
:101180004FEA2A21A9F10800A2681154A9F1070029
:10119000A26802F800A04FF0100030704FF002007B
:1011A0007070804627464FF0000513E07A5D404698
:1011B00008F101011FFA81F83254785D102806D138
:1011C0000246404608F101011FFA81F8325405F148
:1011D000010085B2082DE9DBA7684FF0000513E098
:1011E0007A5D404608F101011FFA81F83254785DBA
:1011F000102806D10246404608F101011FFA81F885
:10120000325405F1010085B2A9F10600A842E7DCDD
:101210004FF01002404608F101011FFA81F83254E4
:101220004FF00302404608F101011FFA81F83254E1
:101230004046BDE8F09FF8B504460D461F4A52F8F7
:1012400024101F4A52F824006A4607F034FF9DF824
:10125000000008B10120F8BDA86808B90220FAE72B
:101260000121204603F0B6F9022008F0FFFC1148E6
:101270004A38005D022809DA0E484A38005D00F15C
:101280000100C1B20B48A0F14A0001552946204691
:10129000FFF757FF06463146204603F0B9FC002011
:1012A000D9E7704730000020360000204830002089
:1012B000A84E0020082E00201800002070FD010814
:1012C000145100202DE9F04105460E464FF0030869
:1012D00015E04FF000070AF08BF82C460AE00221D7
:1012E00020460AF0CDF8082802D04FF0010703E0AD
:1012F00004F10804B442F2D900BF07B906E05FEA7E
:101300000800A8F1010101F0FF08E2D100BF384652
:10131000BDE8F08170B504460D46294620460AF026
:1013200057F9082806D12668AE4201D0012070BDC9
:101330000020FCE70120FAE72DE9F04104460E46C3
:101340004FF003083F2C02D90520BDE8F0813CE0B6
:101350004FF000070AF04CF8B3200AF065FA0AF0E3
:1013600032FA00EA0405B6B16DB30AF0A1F9012121
:1013700020460AF0B0F90AF013FA082801D04FF01D
:1013800001070AF0A1F90AF01EFA00EA0405D5B136
:101390004FF0010717E0A54215D00AF089F90021A6
:1013A00020460AF098F90AF0FBF9082801D04FF01E
:1013B00001070AF089F90AF006FA00EA0405A542D5
:1013C00001D04FF0010707B906E05FEA0800A8F175
:1013D000010101F0FF08BBD100BF3846B5E72DE998
:1013E000F05F07468B4690464FF000014FF0040037
:1013F000FFF7A2FF10B10220BDE8F09F10210846C0
:10140000FFF760FF08B10320F6E75E463D464FF068
:10141000000417E056F8241028460AF0D9F882464E
:10142000BAF1080F07D1D5F8009056F824004845C6
:1014300003D00520E0E70420DEE705F1040504F110
:10144000010084B2B4EBA80FE4DB3D464FF000048A
:101450000CE0D5F8009056F82400484501D005204E
:10146000CAE705F1040504F1010084B2B4EBA80F4A
:10147000EFDB01210420FFF75FFF08B10620BBE787
:1014800001210420FFF758FF09F0BEFF0020B3E759
:1014900030B50B461C464FF0000107E0056844F8E4
:1014A000215000F1040001F10105A9B2B1EBA20F36
:1014B000F4DB30BD10B55C48B0F85400B0F5FA7FED
:1014C00008DB012003F0B0F94FF000005649A1F805
:1014D000540020E05448B0F85400C82190FBF1F2C9
:1014E00001FB120018B9012003F0C1F90BE04E48CE
:1014F000B0F85400642190FBF1F201FB120010B926
:10150000012003F091F94848B0F8540000F10100BF
:101510004549A1F85400444890F82000B0B342482F
:10152000B0F85E00A0280FDB022003F07DF94FF039
:1015300000003D49A1F85E00084690F82000A0F1A7
:10154000010081F820002AE03748B0F85E00502101
:1015500090FBF1F201FB120018B9022003F087F9A9
:101560000BE03148B0F85E00282190FBF1F201FB5E
:10157000120010B9022003F057F92B48B0F85E00B2
:1015800000F101002849A1F85E0008E0FFE7032010
:1015900003F04AF94FF000002349A1F85E00224809
:1015A00090F82600B0B32048B0F86000A0280FDB08
:1015B000032003F039F94FF000001B49A1F8600047
:1015C000084690F82600A0F1010081F826002AE0E4
:1015D0001548B0F86000502190FBF1F201FB1200B9
:1015E00018B9032003F043F90BE00F48B0F860008E
:1015F000282190FBF1F201FB120010B9032003F047
:1016000013F90948B0F8600000F101000649A1F89B
:10161000600008E0FFE7032003F006F94FF0000048
:101620000149A1F85E0010BD982D002070B588B06A
:1016300005464FF0000445E005EB8501DA4A02EB70
:10164000410131F814000DF079FE0646D74850F8F4
:10165000241030460DF0BAFE01A941F8240051F8DB
:101660002400D3490DF085FF0BD2D248005D01283C
:1016700002D1D149085522E04FF00100CD4908556B
:101680001DE001A951F82400CC490DF06BFE0BD2EE
:10169000C84820B94FF00000C74908550FE04FF087
:1016A0000000C44908550AE0C248005D012802D183
:1016B000C149085503E04FF00000BF49085504F147
:1016C0000100C4B2052CB7DB4FF000040DE001A906
:1016D00051F82400BA490DF037FD06460DF0F6FD2D
:1016E00006A9085504F10100C4B2052CEFDB9DF8F2
:1016F0001800B44908729DF8190048729DF81A0044
:1017000088729DF81B00C8729DF81C00C871AB4917
:1017100005980DF027FE12D2AA48007B40F0010088
:10172000A8490873A848007801281ED14FF400602A
:10173000A64908834FF40070A549088015E0A14828
:10174000007B20F001009F4908734FF00000A14981
:1017500008704FF00100A04908704FF400609B49E9
:1017600048834FF400709D49088008B070BD70B583
:101770009B480088C4B29B480088C5B207E0204659
:10178000FFF754FF04F10100C4B204F00F04A542B6
:10179000F5D19348048070BD10B504464FF0200188
:1017A000914809F026FB30B120218F4809F02DFB2C
:1017B000204602F0FAF910BD13E08C48B0F8BA00E8
:1017C00000F101008949A1F8BA000846007F28B15C
:1017D00087494868FFF7E0FFFFF7C9FF0A2008F0D4
:1017E00045FAEAE730B5834A83494FF0000007E045
:1017F00032F8025B0C682C4410C100F10104E0B225
:101800000528F5DB7D4C248804F101047B4D2C80F8
:101810002C462488102C39DB4FF000042C80714CAE
:10182000248804EB8404604D05EB440272494FF0B8
:1018300000001EE051F82040C4F30F134FF00004E5
:1018400041F82040594CA4F10C0434F810409C425B
:1018500008DA564C0C3C34F81040A3EB040422F890
:10186000104003E04FF0000422F8104000F10104A2
:10187000E0B20528DEDB5B4C248804F10104594DFD
:101880002C802C46248804F00F042C8030BD70B5C9
:1018900004460D465548007F01280BD1FFF7A2FFF3
:1018A00002F0BEF95148D0F8E00000F101004F49C4
:1018B000C1F8E000002070BD10B585B002464FF0C1
:1018C00000001FE04FF000034DF8203019460EE0F5
:1018D00001EB8103344C04EB430333F810305DF823
:1018E000204023444DF8203001F1010399B2102922
:1018F000EED35DF82030C3F30F1322F8103000F15F
:10190000010398B20528DDDB05B010BD2DE9F043D9
:1019100085B006464FF0000406E04FF000004DF899
:10192000240004F1010084B2052CF6DB4FF0000422
:1019300016E04FF000050EE004EB84001A4901EBBD
:10194000400030F815005DF8251008444DF82500DA
:1019500005F1010085B2052DEEDB04F1010084B232
:10196000102CE6D34FF0000418E05DF824000DF0D1
:10197000E5FC81460D4850F8241048460DF026FD40
:1019800080464FF083410DF0DFFB074638460DF0EF
:101990009DFC26F8140004F1010084B2052CE4DB60
:1019A00005B0BDE8F083000072300020A02E0020BA
:1019B00000606A4642000020470000200080BB45CE
:1019C0000000C842082F002007000020000002404D
:1019D0001804024000000020100000201A040240F9
:1019E0003E0000203C00002000200140982D0020F7
:1019F000604E00206830002054300020400000205D
:101A000002E00A2008F032F9FBE730B595B04FF05C
:101A100000052C4608E04FEA44604FEA106001A937
:101A2000085504F10100C4B2502CF4DB4FF0500013
:101A30000090BDF800204FF0000101A802F066FD03
:101A400005461DB14FF0000000901BE06A460021E2
:101A500001A802F06AFB05461DB14FF0000000909E
:101A600010E04FF000040AE001A8005DB0EB440F65
:101A700002D04FF0010504E004F10100C4B2502C83
:101A8000F2DB00BF15B030BDF948FA498860FA486A
:101A9000FA49886012E0FA48007F01280BD1F54925
:101AA0000020FFF79EFAF648B0F8940000F101001C
:101AB000F349A1F89400052008F0D8F8EBE72DE9E8
:101AC000F04F85B083464FF00000049001900090E5
:101AD0008146824608F0E4FE04904846E9490870D1
:101AE000E9490870049808F0DFFEE84840791F28AB
:101AF00002DD4FF01F0001E0E44840798146E348F1
:101B00000079012802DA4FF0010001E0DF48007996
:101B10008246AAF10100484500DA00E04846064640
:101B2000AAEB06000390002E2ADD4FEA06504FEA8A
:101B30001040019003984FEA00504FEA1040009087
:101B400001AAD348009902F0F0FA4FF0000415E022
:101B50004FF000050EE0A6EB0400A0F1010005EB3C
:101B60000010CB49085CC549896805EB041288540C
:101B700005F10105102DEEDB04F10104B442E7DBB1
:101B8000A9EB0607C7F120000290002F2DDD4FEAD8
:101B900007504FEA1040019002984FEA00504FEA78
:101BA0001040009001AABA48009902F0BEFA4FF026
:101BB000000418E04FF0000511E0A7EB0400A0F1CD
:101BC000010005EB0010B249085C4FEA061101EB79
:101BD00004112944A94A9268505405F10105102DB9
:101BE000EBDB04F10104BC42E4DB4FEA091808F125
:101BF00008004FEA1020A149087008F10800487059
:101C00004FF00000FFF717FBBBF1010F1BD14FF0A6
:101C100001009E4908714FF0000048714FF0060125
:101C20009A48FFF795F89949C880084600790873E3
:101C30000846407948730846C088C88110220021B0
:101C4000924802F063FC08F02BFE04904FF0010074
:101C50008C4908708C490870049808F025FE05B07E
:101C6000BDE8F08F08B54FF000020092104650E03A
:101C7000884A125C2AB300EB8002874B13F81220CB
:101C80000DF800204FF0010118E000EB8002824BBC
:101C900003EB4202814B1B5CD25C1DF800309A4280
:101CA00009DD00EB80027C4B03EB42027B4B1B5CAB
:101CB000D25C0DF8002001F10102D1B20A29E4DB67
:101CC00024E000EB8002744B13F812200DF8002082
:101CD0004FF0010118E000EB80026F4B03EB420272
:101CE0006E4B1B5CD25C1DF800309A4209DA00EBA7
:101CF0008002694B03EB4202684B1B5CD25C0DF81F
:101D0000002001F10102D1B20A29E4DB00F1010255
:101D1000D0B20428ACDB4FF0000008E05E4A283265
:101D2000125C564B9B681A5400F10102D0B20A288B
:101D3000F4DB9DF80020514B9B689A72574A127849
:101D4000554B9A5C4D4B9B68DA729DF801204B4BCA
:101D50009B681A73514A53784F4A0A32D25C474BF8
:101D60009B685A739DF80220444B9B689A734B4AB8
:101D70009378494A1432D25C404B9B68DA739DF8E1
:101D800003203E4B9B681A74444AD378424A1E3261
:101D9000D25C3A4B9B685A7408BD2DE9D04F88B08D
:101DA00007464FF00008C146C246C3463CA103C9DE
:101DB000CDE90101F879132876D00CDCA0F10500FB
:101DC0000E2872D2DFE800F0F9F871F7F61871A268
:101DD00071717171F5F4202868D006DC14287DD06B
:101DE00016287CD0182860D1E6E1B02878D0B22837
:101DF00077D0CC28F7D1BDE04FF000001F49087024
:101E00004FF0140048701E48007888704FF00000B2
:101E1000C8701848807808714FF0000048714FF082
:101E2000010088714FF00B00C8714FF00800079057
:101E3000BDF81C204FF0000101A802F067FB8046AE
:101E400007AA4FF0000103A802F06FF98146BDF820
:101E50001C0008B14FF0020A4FF000042AE003A86A
:101E6000005D01A9095D884221D04FF0010B23E0FC
:101E70001439002014410020143D0020244100208A
:101E8000982D00200700002006000020E42E0020EE
:101E90003441002047000020153000208C01002034
:101EA000198806050609010544E1F3E2B0E104F1F1
:101EB000010084B2082CD2DB00BFFB48806880F8A8
:101EC0000080F948806880F80190F748806880F8C1
:101ED00002A0F548806880F803B003E02BE14BE1F5
:101EE000B6E14DE24FF0040409E0A4F1040003A9B7
:101EF000085CED498968085504F1010084B20C2C96
:101F0000F3DBE9490020FFF796F9C4E24FF0000047
:101F1000E54908704FF018004870E4480078887070
:101F20004FF00000C870E248807808714FF0000060
:101F300048714FF0010088714FF00D00C8714FF0EB
:101F40001000079007AA4FF0000103A802F0EDF877
:101F50004FF0000407E003A8005DD34989680855E5
:101F600004F1010084B2102CF5DBCF490020FFF70B
:101F700062F990E2CD480078CB4988704FF00000BC
:101F8000C870CB48807808714FF0000048714FF05E
:101F9000040088714FF01900C871C648407968B1D3
:101FA000C5480078012817D10020FFF788FD13E00D
:101FB0004DE14BE178E010E055E033E04FF00000F8
:101FC000B94908704FF0090048704FF00000896867
:101FD0000870B549FFF72FF95DE24FF00000B249F4
:101FE00008704FF00A004870B048007888704FF0D1
:101FF0000000C870AE48807808714FF0000048714A
:102000004FF0020088714FF00100C8714FF00800D6
:10201000896808704FF00000A34989684870FEF78E
:1020200009FB38E24FF000009F4908704FF00900AB
:1020300048709E48007888704FF00000C8709C4837
:10204000807808714FF0000048714FF002008871ED
:102050004FF00700C8714FF000008968087092497E
:10206000FFF7E9F817E24FF000008F4908704FF0D2
:10207000090048708D48007888704FF00000C870E3
:102080008B48807808714FF0000048714FF00200D3
:1020900088714FF00700C8714FF000008968087020
:1020A0008149FFF7C8F8F6E14FF000007E4908705B
:1020B0004FF0160048707D48007888704FF000009F
:1020C000C8707B48807808714FF0000048714FF06D
:1020D000030088714FF01000C8714FF0000089684C
:1020E0000870044609E004F104007449095C6E4874
:1020F000826804F10100115484B2062CF3DB4FF026
:10210000010069498968C8714FF000040BE004F1CF
:1021100014006A49095C6448826804F1080011549B
:1021200004F1010084B2062CF1DB5F490020FFF7C7
:1021300082F8B0E1AFE14FF000005B4908704FF06A
:10214000090048705948007888704FF00000C87046
:102150005748807808714FF0000048714FF0030035
:1021600088714FF01500C8714FF000008968087041
:102170004D49FFF760F88EE14FF000004A490870C2
:102180004FF01A0048704948007888704FF00000FE
:10219000C8704748807808714FF0000048714FF0D0
:1021A000040088714FF01700C871FFF75BFD3E49CE
:1021B0000020FFF740F86EE13C4800783A4988700B
:1021C0004FF00000C8703A48807808714FF0000066
:1021D00048714FF0040088714FF01900C8713548FC
:1021E000407930B134480078012810D1FFF767FCFE
:1021F0000DE04FF000002C4908704FF009004870C6
:102200004FF00000896808702749FFF714F842E191
:102210002B4E4FF0000407E025488068005D06F86B
:10222000010B04F1010084B2042CF5DB06F1010678
:102230004FF0040407E01E488068005D06F8010BBB
:1022400004F1010084B2072CF5DB24E123E122E153
:102250004FF00000144908704FF012004870134806
:10226000007888704FF00000C870114880780871BD
:102270004FF0000048714FF00A0088714FF0B10034
:10228000C8712846FFF718FB288810B14FF00100ED
:1022900001E04FF0000004498968087028880012A6
:1022A00010D04FF001000FE024410020982D0020B5
:1022B00014410020E42E002006000020152F0020ED
:1022C000C42E00204FF00000754989684870688866
:1022D00010B14FF0010001E04FF000007049896833
:1022E00088706888001202D04FF0010001E04FF0C2
:1022F00000006B498968C870A88810B14FF00100D0
:1023000001E04FF00000664989680871A888001252
:1023100002D04FF0010001E04FF0000060498968F1
:102320004871E88810B14FF0010001E04FF0000063
:102330005B4989688871E888001202D04FF001007B
:1023400001E04FF0000056498968C871288910B132
:102350004FF0010001E04FF0000051498968087218
:102360002889001202D04FF0010001E04FF0000078
:102370004B49896848724A490520FEF75CFF8AE0AC
:102380004FF00000464908704FF012004870454871
:10239000007888704FF00000C8704348807808715A
:1023A0004FF0000048714FF00A0088714FF0B30001
:1023B000C8712846FFF7AAFA288810B14FF001002B
:1023C00001E04FF000003649896808702888001243
:1023D00002D04FF0010001E04FF000003049896861
:1023E0004870688810B14FF0010001E04FF0000024
:1023F0002B49896888706888001202D04FF001006C
:1024000001E04FF0000026498968C870A88810B123
:102410004FF0010001E04FF0000021498968087188
:10242000A888001202D04FF0010001E04FF0000038
:102430001B4989684871E88810B14FF0010001E03C
:102440004FF00000164989688871E888001202D0B0
:102450004FF0010001E04FF0000011498968C87198
:10246000288910B14FF0010001E04FF000000C4945
:10247000896808722889001202D04FF0010001E03B
:102480004FF0000006498968487205490020FEF7B0
:10249000D2FE00E000BF00BF08B0BDE8D08F000052
:1024A00024410020982D002014410020FD48FE49C1
:1024B0008860FE48FE49886013E0FE48007F0128DE
:1024C0000CD1F9490520FEF78CFDFA48B0F89E00C2
:1024D00000F1010081B2F748A0F89E100A2007F031
:1024E000C5FBEAE710B504464FF00000F04908705C
:1024F0004FF009004870EF48007888704FF00000F6
:10250000C870E948807808714FF0000048714FF0BA
:102510000A0088714FF0AB00C871084680680470EB
:102520004FF00500FEF787FE10BD30B501464FF0B5
:10253000010448780D7800EB052083B20F2B01D001
:10254000012030BD8878802801D00320F9E7886811
:102550000078AA2805D088680078552801D0042082
:10256000EFE7886880798D682D78A84201D0052032
:10257000E7E7886840783F2801DD0620E1E78868C2
:10258000407808B90620DCE7886800F10202886814
:102590000078AA2808D1C84D1068A84201D00720A9
:1025A000CFE74FF010040BE088680078552807D17A
:1025B000C24D1068A84201D00820C2E74FF00004C5
:1025C0002046BEE73EB56846FFF7A0F94FF0000091
:1025D000B74908704FF012004870B648007888700C
:1025E0004FF00000C870B048807808714FF00000CC
:1025F00048714FF00A0088714FF0B300C8714FF076
:10260000000413E03DF81400A949896801F814009A
:102610003DF814004FEA2020A54989684FF00102D7
:1026200002EB4402885404F10100C4B2052CE9DB3A
:102630009F490520FEF7FFFD3EBD10B586B001A8FD
:10264000FFF73AF94FF00000994908704FF0120077
:1026500048709848007888704FF00000C870924821
:10266000807808714FF0000048714FF00A008871BF
:102670004FF0B100C8714FF0000415E001A830F828
:1026800014008B49896801F8140001A830F814007F
:102690004FEA2020864989684FF0010202EB44028C
:1026A000885404F10100C4B2052CE7DB8049052001
:1026B000FEF7C1FD06B010BD2DE9F04704464FF00E
:1026C0000108A068007805285CDA6078217800EBC2
:1026D0000120A0F1080086B216F0010F52D0A6F139
:1026E000010086B216F0030F4CD14FEAA606A0688F
:1026F00000783044062845DA4FF000053EE04FF000
:10270000010101EB8501A068415C02464FF0010028
:1027100000EB850000F10100105C01EB002087B2A6
:10272000A068007800EB0501624800F1FC0020F889
:1027300011704FF0010000EB850000F10200A1686C
:10274000095C4FF0010000EB850000F10300A26876
:10275000105C01EB002087B238460CF0EFFD81469B
:102760004FF087410CF0F0FCA168097801EB0502FD
:10277000534941F8220005F1010085B2B542BEDBA4
:102780004FF00008B8F1000F27D14FF00000484982
:1027900008704FF00A0048704648007888704FF083
:1027A0000000C8704048807808714FF00000487100
:1027B0004FF00A0088714FF00100C8714FF0B80067
:1027C0008968087038488068007839498968487095
:1027D00037494FF00500FEF72EFDBDE8F0872DE9E3
:1027E000F04705466878297800EB0120A0F1080041
:1027F0001FFA80F8B8F1140F68D1324890F82D0014
:10280000042804DD4FF000002E4981F82D002D48EA
:1028100090F82D0000EB80004FF03A0101EB8008AA
:102820004FF0000408E0A868005D08EB0401254AA9
:10283000505404F1010084B2142CF4DB214890F8C8
:102840002C0000F101001F4981F82C00084690F887
:102850002C00042803DD4FF0040081F82C001948F7
:1028600090F82D0000F10100164981F82D0008466E
:1028700090F82D00042803DD4FF0000081F82D00B2
:102880007E2110482030FEF763FA06464FEA2620E4
:102890000C4981F89E0081F89F60DFF82C904FF47E
:1028A000807214E034480020344D0020344C002065
:1028B000444D0020982D00203162547662317654C8
:1028C000A02E0020152F0020008000082AE0484696
:1028D000FEF785FD07462FBB4FF00000FA49087050
:1028E0004FF00A004870F948007888704FF00000F7
:1028F000C870F748807808714FF0000048714FF0B9
:1029000001008871C8714FF0360089680870F0487E
:1029100080680078EC4989684870EB494FF0050001
:10292000FEF789FCBDE8F08770B5EA4890F82C50B6
:102930004FF00000E449087005EB85004FF00801F6
:1029400001EB8000E0494870E048007888704FF063
:102950000000C870DE48807808714FF000004871B0
:102960004FF0010088714FF03500C8714FF000043E
:1029700009E004F13A00D749085CD3498968085551
:1029800004F10100C4B2AC42F3DBCF490520FEF7ED
:1029900052FC70BD2DE9F04705466878297800EBB8
:1029A0000120A0F108001FFA80F9B9F1080F49D100
:1029B0004FF0000408E0A868015D04F13200C54A48
:1029C000115404F1010084B2082CF4DB7E21C148CB
:1029D0002030FEF7BDF906464FEA2620BD4981F8B2
:1029E0009E0081F89F60DFF8F0824FF480724046CD
:1029F000FEF7F5FC07462FBB4FF00000B249087008
:102A00004FF00A004870B148007888704FF000001D
:102A1000C870AF48807808714FF0000048714FF0DF
:102A200001008871C8714FF0320089680870A848A9
:102A300080680078A44989684870A3494FF0050070
:102A4000FEF7F9FBBDE8F08710B54FF000009E4996
:102A500008704FF0100048709C48007888704FF064
:102A60000000C8709A48807808714FF000004871E3
:102A70004FF0010088714FF03100C8714FF0000431
:102A800009E004F132009349085C8F4989680855D0
:102A900004F10100C4B2082CF3DB8B490520FEF7DA
:102AA000CAFB10BD70B54FF00000874908704FF0A9
:102AB0001C0048708548007888704FF00000C8708E
:102AC0008348807808714FF0000048714FF0010092
:102AD00088714FF00400C8714FF000042EE07B486D
:102AE000FC3030F814507849896801F824504FEAD6
:102AF0002520754989684FF0010202EB8402885451
:102B0000764951F824004FF087410CF05FFC0646EF
:102B10000CF0DCFB85B26C4989684FF0020202EBD5
:102B200084028D544FEA2520674989684FF00302DB
:102B300002EB8402885404F10100C4B2052CCEDB00
:102B400061490520FEF777FB70BD2DE9F05F064671
:102B50004FF000084FF0010A7078317800EB012047
:102B6000A0F1080087B2142F5AD14FEAA7074446B4
:102B700050E04FF0000101EB8401B068405C4FF081
:102B8000010202EB8402B168895C00EB012085B28E
:102B90004FF0240000EB84004E4A15544FEA2521E3
:102BA0004FF0240000EB840000F1010011544B4869
:102BB000A0F10C0020F814504FF0020101EB840149
:102BC000B068405C4FF0030202EB8402B168895C9C
:102BD00000EB012085B24FF0240000EB840000F1EF
:102BE00002003C4A15544FEA25214FF0240000EB27
:102BF000840000F10300115428460CF09FFB83462B
:102C00004FF087410CF0A0FA344941F8240004F158
:102C1000010084B2BC42ACDB4FF01E084FF0000A4A
:102C2000BAF1000F40D141462A482030FEF790F813
:102C300005464FEA252108F12000264A115408F1E3
:102C400021001554DFF890904FF4807221494846D6
:102C5000FEF7C5FB8246BAF1000F25D14FF0000008
:102C6000194908704FF00A004870184800788870B9
:102C70004FF00000C8701648807808714FF00000CF
:102C800048714FF001008871C8714FF002008968E7
:102C900008700F48806800780B49896848700A49B5
:102CA0004FF00500FEF7C7FABDE8F09F2DE9F041AF
:102CB00086B005464FF00007B846E87914287DD065
:102CC0001ADC7CD20CE00000444D0020982D00203E
:102CD000344D0020152F002000800008A02E002079
:102CE000DFE800F06D234B4F6D52786DA1A76D6D3D
:102CF0006D6D6D6D6DEFEEF036287CD00CDC3028FC
:102D00007AD004DC162878D0182858D128E1322847
:102D100074D03428F9D19AE1AA2870D0B0286FD0A5
:102D2000B2286ED0B828F0D1A0E14FF00000E14900
:102D300008704FF00A004870DF48007888704FF044
:102D40000000C870DD48807808714FF000004871BD
:102D50004FF0110088714FF00100C8714FF0110061
:102D6000896808704FF00000D24989684870D149DD
:102D70004FF00500FEF75FFA98E12846FFF7E5FE01
:102D800094E1FFF78FFE91E14FF00000C949087010
:102D90004FF009004870C848007888704FF0000074
:102DA000C870C648807808714FF0000048714FF035
:102DB000020088714FF00700C87101E083E074E100
:102DC0004FF0000089680870BA494FF00500FEF71F
:102DD00032FA6BE14FF00000B64908704FF009007D
:102DE0004870B548007888704FF00000C870B3484C
:102DF0008078087106E030E11CE187E020E13FE1E6
:102E000038E13AE14FF0000048714FF0020088715C
:102E10004FF00700C87189680F70A6494FF0050090
:102E2000FEF709FA42E1A648A6490860FDF702FC50
:102E30003CE14FF000009F4908704FF016004870C9
:102E40009D48007888704FF00000C8709B488078DB
:102E500008714FF0000048714FF0030088714FF087
:102E60001000C8714FF0000089680870044609E03E
:102E700004F104009449095C8E48826804F1010061
:102E80001154C4B2062CF3DB4FF001008949896864
:102E9000C8714FF000040BE004F114008A49095C8A
:102EA0008448826804F10800115404F10100C4B29E
:102EB000062CF1DB7F490520FEF7BDF9F6E001E0C5
:102EC000D3E0D1E0F2E04FF000007A4908704FF013
:102ED000090048707848007888704FF00000C8708A
:102EE0007648807808714FF0000048714FF0030079
:102EF00088714FF01500C8714FF0000089680870A4
:102F00006C494FF00500FEF796F9CFE04FF0000056
:102F10006849087007F108004870674800788870B1
:102F20004FF00000C8706548807808714FF00000CD
:102F300048714FF0040088714FF01700C8714FF0CE
:102F4000020089680870604801795A488268A7F1D0
:102F50000100115457494FF00500FEF76CF9A5E048
:102F60004FF00000534908705348007888704FF0C4
:102F70000000C8705148807808714FF00000487117
:102F80004FF0040088714FF01900C8714F48407924
:102F900080B34FF0180048704C480079012804D1E4
:102FA0004FF01F004A49087005E048480079A0F139
:102FB0000100474908704FF01000019027E007F02A
:102FC0006FFC804641484079A0F101003F494871BB
:102FD000404607F069FC01AA3D48017802A800F0CC
:102FE00080FF3B480078012805D14FF01F00384989
:102FF000087006E010E036480078A0F1010034497E
:10300000087002A82B4988600520FEF714F92F48A4
:1030100040790028D3D10CE04FF0090025494870D1
:103020004FF000008968087022494FF00500FEF754
:1030300002F93BE0A879012801D1FFF705FD35E051
:10304000A879012802D12846FFF7A4FC2EE0A87930
:10305000012801D1FFF768FC28E0A879012802D1F6
:103060002846FFF7BCFB21E020E01FE02846FFF7E1
:1030700023FB1BE0FFF7E1FA18E0FFF7A3FA15E0E6
:103080002846FFF752FA064616F00F0F03D03046D7
:10309000FFF728FA08E03111AA685078FEF74CF9DA
:1030A00006463046FFF71EFA00E000BF00BF06B03C
:1030B000BDE8F081444D0020982D0020344D0020C3
:1030C00093556273FC7F0120152F0020E42E002011
:1030D000110000200848804708480047FEE7FEE747
:1030E000FEE7FEE7FEE7FEE7FEE7000004480549CD
:1030F000034A054B70470000CF51010885010108C4
:10310000986D002098850020986D002010B54FF430
:103110009A715F480AF03EFC10BD7FB504460D462B
:1031200016465C4850F82400009025B14FF48050BA
:10313000ADF8040003E04FF00000ADF804004FF0DC
:103140000000ADF80600ADF80800ADF80C004FF037
:103150000C00ADF80A00504951F824000AF072F949
:1031600033462A466946204601F077FC7FBD10B5FC
:1031700000F0EDF801F04CFA01F02EFB44484068F5
:1031800020B14349486800F010FD05E04048006860
:1031900040F001003E490860012005F0F0FE3F4983
:1031A0000860002211461046FFF7B7FF012005F026
:1031B000E6FE3A494861002211460520FFF7ADFFBF
:1031C00000F06EFE01F0C3FB10BD10B501214020E0
:1031D00009F071F83248006840F008003049086092
:1031E0000846006840F00400086000BF2C48001D3D
:1031F000006810F0010FF9D02A48046828480068D8
:1032000020F00800264908600846006820F0040005
:1032100008604FF000014FF0400009F04CF82046E4
:1032200010BD1FB5684608F0A4FF019804B010BD9A
:1032300070B5FFF7F6FF04464FF47A70B4FBF0F573
:10324000284607F007FB70BD4FF0000102E000BF09
:1032500001F101018142FAD3704710B512480068AC
:1032600040F08070104908604FF000000F4948603E
:103270000846006840F001000860FFF7D2FF0446EE
:10328000204602F0D9F810BD084840687047000099
:10329000604E002088FD01088000002014510020AD
:1032A0000008065008080650FCED00E0001000E0A1
:1032B000704710B50446512C04D204F11000C0B27E
:1032C00002F0F6F910BD10B502F098FD10BD10B572
:1032D0000446512C04D204F11000C0B202F094FA5A
:1032E00010BD70B504460D464FF00006512C10D2AB
:1032F00000BF00BF02F086FD064600BF00BFF448D5
:1033000040F8245000BF00BF304602F07FFD00BFF0
:1033100000BF70BD70B504460D464FF00006512C3D
:1033200013D200BF00BF02F06DFD064600BF00BF14
:10333000294604F11000C0B202F072FB00BF00BFCA
:10334000304602F063FD00BF00BF70BD704710B58E
:103350004FF0000405E0DF492046FFF7C2FF04F10B
:103360000104512CF7D310BD70B504464FF0000690
:1033700000BF00BF02F046FD064600BF00BF04F0DC
:10338000D6F900BF00BF304602F040FD00BF00BFCD
:10339000512C04D2CE4850F8245005B1A84704F06F
:1033A0001FFA70BD10B50020FFF7DEFF10BD10B58D
:1033B0000120FFF7D9FF10BD10B50220FFF7D4FFA1
:1033C00010BD10B50320FFF7CFFF10BD10B50420CE
:1033D000FFF7CAFF10BD10B50520FFF7C5FF10BDF0
:1033E00010B50620FFF7C0FF10BD10B50720FFF78E
:1033F000BBFF10BD10B50820FFF7B6FF10BD10B51C
:103400000920FFF7B1FF10BD10B50A20FFF7ACFF90
:1034100010BD10B50B20FFF7A7FF10BD10B50C2095
:10342000FFF7A2FF10BD10B50D20FFF79DFF10BDE7
:1034300010B50E20FFF798FF10BD10B50F20FFF755
:1034400093FF10BD10B51020FFF78EFF10BD10B513
:103450001120FFF789FF10BD10B51220FFF784FF80
:1034600010BD10B51320FFF77FFF10BD10B514205D
:10347000FFF77AFF10BD10B51520FFF775FF10BDDF
:1034800010B51620FFF770FF10BD10B51720FFF71D
:103490006BFF10BD10B51820FFF766FF10BD10B50B
:1034A0001920FFF761FF10BD10B51A20FFF75CFF70
:1034B00010BD10B51B20FFF757FF10BD10B51C2025
:1034C000FFF752FF10BD10B51D20FFF74DFF10BDD7
:1034D00010B51E20FFF748FF10BD10B51F20FFF7E5
:1034E00043FF10BD10B52020FFF73EFF10BD10B503
:1034F0002120FFF739FF10BD10B52220FFF734FF60
:1035000010BD10B52320FFF72FFF10BD10B52420EC
:10351000FFF72AFF10BD10B52520FFF725FF10BDCE
:1035200010B52620FFF720FF10BD10B52720FFF7AC
:103530001BFF10BD10B52820FFF716FF10BD10B5FA
:103540002920FFF711FF10BD10B52A20FFF70CFF4F
:1035500010BD10B52B20FFF707FF10BD10B52C20B4
:10356000FFF702FF10BD10B52D20FFF7FDFE10BDC7
:1035700010B52E20FFF7F8FE10BD10B52F20FFF775
:10358000F3FE10BD10B53020FFF7EEFE10BD10B5F4
:103590003120FFF7E9FE10BD10B53220FFF7E4FE41
:1035A00010BD10B53320FFF7DFFE10BD10B534207D
:1035B000FFF7DAFE10BD10B53520FFF7D5FE10BDC0
:1035C00010B53620FFF7D0FE10BD10B53720FFF73D
:1035D000CBFE10BD10B53820FFF7C6FE10BD10B5EC
:1035E0003920FFF7C1FE10BD10B53A20FFF7BCFE31
:1035F00010BD10B53B20FFF7B7FE10BD10B53C2045
:10360000FFF7B2FE10BD10B53D20FFF7ADFE10BDB7
:1036100010B53E20FFF7A8FE10BD10B53F20FFF704
:10362000A3FE10BD10B54020FFF79EFE10BD10B5E3
:103630004120FFF799FE10BD10B54220FFF794FE20
:1036400010BD10B54320FFF78FFE10BD10B544200C
:10365000FFF78AFE10BD10B54520FFF785FE10BDAF
:1036600010B54620FFF780FE10BD10B54720FFF7CC
:103670007BFE10BD10B54820FFF776FE10BD10B5DB
:103680004920FFF771FE10BD10B54A20FFF76CFE10
:1036900010BD10B54B20FFF767FE10BD10B54C20D4
:1036A000FFF762FE10BD10B54D20FFF75DFE10BDA7
:1036B00010B54E20FFF758FE10BD10B54F20FFF794
:1036C00053FE10BD10B55020FFF74EFE10BD000098
:1036D000944F00204D330108F8B505460E461746B5
:1036E000304605F04CFC04460CB90020F8BD2C60B7
:1036F0006A463946204603F045FC0120F6E7F8B556
:1037000004460D464FF47A7005FB00F04FF47A71D1
:10371000B0FBF1F66A463146206805F0CCFC9DF816
:10372000000008B10020F8BD0120FCE770B5044698
:10373000206805F084FD05460DB1002070BD012014
:10374000FCE770B5044642F21070844200D904468A
:103750004FF47A70B4FBF0F0C6B24FF47A70B4FB59
:10376000F0F100FB11452B4632464FF000010846B0
:1037700006F0B7FA70BD000010B5B4480488C4F371
:10378000401060B1B14809F080FFB149087040F2C3
:103790002551AE480AF09BF8AE48FFF7C7FFC4F3C7
:1037A000C01068B1002240F22771A8480AF008F85A
:1037B00040F22771A5480AF08AF8A748FFF7B6FF3C
:1037C00010BD10B588B00446A4A24FF00001A24875
:1037D000FFF782FFA5A200219E48FFF77DFFA7A269
:1037E0000121A948FFF778FF02944FF00000ADF8DF
:1037F0000C00ADF80E00ADF81000ADF814004FF05D
:103800000C00ADF812004FF00000ADF80000ADF86C
:1038100002004FF40070ADF804004FF00000ADF866
:1038200006004FF001014FF0040008F035FD0121C2
:10383000880408F05EFD4FF4806006904FF00200AF
:103840008DF81D008DF81C004FF000008DF81E0053
:103850004FF001008DF81F0006A98C4808F05EF8B3
:1038600007220A21894808F002F94FF40060069007
:103870004FF002008DF81C0006A9844808F04EF8AD
:1038800007220B21814808F0F2F802A96F4809F0DD
:1038900027FE69466D4809F0AAFE01216B4809F030
:1038A000C2FE7B492720FFF71CFD2720FFF70FFDF5
:1038B00008B010BD10B504462146644809F0E1FE89
:1038C000012240F22771614809F07AFF0A2162481B
:1038D000FFF715FF002240F227715C4809F070FFE6
:1038E00010BD70B504464FF000016748FFF707FFB1
:1038F0000546012D00D070BD0FE020780A2808D1C0
:103900000D20FFF7D7FF0A20FFF7D4FF04F10104D1
:1039100003E014F8010BFFF7CDFF20780028ECD16D
:103920005948FFF703FF00BFE5E70FB400B597B0B4
:1039300019A80190512102A8019B189A09F0EEFFE5
:103940004FF00000019002A8FFF7CBFF17B05DF821
:1039500014FB10B5012240F225513C4809F030FF1C
:1039600000213C48FFF7CBFE002240F225513748AA
:1039700009F026FF36480478204610BD10B5002116
:103980004148FFF7BCFEFFF7E4FF04463E48FFF75F
:10399000CDFE204610BD2DE9F04106460F464FF002
:1039A00000042046307001463748FFF7A8FE8046E5
:1039B000B8F1010F01D0BDE8F08131E0FFF7C9FF98
:1039C00005460D2D01D00A2D09D10A20FFF772FFFF
:1039D0000D20FFF76FFF4FF00000305521E0082D5C
:1039E00010D1002C0EDD0820FFF764FF2020FFF728
:1039F00061FF0820FFF75EFFA4F10100C4B24FF0A1
:103A000000003055284602F0B9FA48B12846FFF7C1
:103A100051FF355504F10100C4B2BC4200DBFCB2D9
:103A2000CCE700BF1848FFF781FE00BFC3E710B521
:103A300004464FF000011448FFF761FE2046FFF7EF
:103A400039FF1148FFF772FE10BD0000004800402A
:103A500058000020500000204C000020536572697F
:103A6000616C205478205761697400005365726955
:103A7000616C205278205761697400005365726947
:103A8000616C204C6F636B00540000200008024002
:103A90007937010810B56D480468C4F3401020B1AF
:103AA0006B496A48103007F094FBC4F3C00020B1A2
:103AB00068496648103007F08CFB14F0010F04D001
:103AC00065496248103007F084FB10BD10B586B020
:103AD0004FF0000000904FF001008DF804004FF00F
:103AE00000008DF80500029004904FF005008DF85D
:103AF00014006946594806F036FF4FF000040AE00A
:103B00005748015D0623601CC2B2544806F0C8FF46
:103B100004F10100C4B2052CF2DB06B010BD10B5F3
:103B200090B004464FF00000019003944D4802907D
:103B30004FF0000004904FF0050005904FF000009A
:103B400006904FF4806007904FF4006008904FF4A7
:103B5000005009904FF000000A904FF400300B9095
:103B60004FF000000C904FF001000D904FF000005E
:103B70000E900F9001A93C4807F002FA0121374846
:103B800007F046F810B010BD1CB54FF01F000090B4
:103B90004FF003008DF804004FF000008DF807008F
:103BA0006946324807F0BAFE1CBD1FB504464FF007
:103BB00001012F4808F070FB0121080208F0A8FB62
:103BC000FFF7E2FF2046FFF7AAFF4FF0000000904A
:103BD000019002904FF420600390684606F0FDFECD
:103BE000FFF774FF012210211F4807F0A7FA2149AF
:103BF0001D4807F08FFAAFF263113820FFF771FB11
:103C00003820FFF764FB0121144807F00CF801216C
:103C1000124806F000FF0021134807F0FAF91FBD13
:103C200010B51548006810F0010F0ED10E4807F0CE
:103C300040FA50B905210C4807F00CFA01210A4856
:103C400007F0E7F9054806F09BFF10BD006402404D
:103C5000208000100820001001000090002001408A
:103C6000A2FD01084C2001401064024000080240FF
:103C70000400400020000010604E002010B5FE49F6
:103C8000FE4807F02AFA80B10121FD4807F0FFFF46
:103C90000021FA4807F0BDF9F749F84807F03AFA69
:103CA0004FF00000F7490968088010BD00207047F8
:103CB00010B5F549F148903007F00FFA30B3002104
:103CC000EE48903007F0A5F9EF49EC48903007F046
:103CD00021FA4FF42040ED49086007E0EB490868FD
:103CE000411EEA4A116008B9FFF7E0FFE2491C39BA
:103CF000E34808F001F90028F0D00121E04807F07E
:103D0000C6FF4FF00000E2490968088010BD1CB5ED
:103D10000121480508F0EDFA0121022008F0BCFA63
:103D20000121880308F0F4FA0121480508F061FB3D
:103D300000214FF4001008F05CFB4FF040000090B1
:103D40004FF002008DF804008DF805004FF00100DF
:103D50008DF806004FF000008DF807006946CD4849
:103D600007F0DCFD4FF0800000906946C94807F07D
:103D7000D5FD04220621C74807F079FE0422072159
:103D8000C44807F074FE0121480508F085FAC249CD
:103D9000BA48903007F0BEF90021B848903007F0DB
:103DA00038F9B648903007F055F84FF00070BB492D
:103DB0000860BB4848604FF0000088604FF040004A
:103DC000C8604FF6FF7008614FF0000048614FF483
:103DD000806088614FF00000C861086248624FF45B
:103DE000403088624FF00400C8624FF0030008635F
:103DF0004FF0000048638863AA4807F0C1F800212B
:103E00009E4807F006F99D4807F024F8A3499B480F
:103E100007F0B6F801221021A24807F08FF901221D
:103E20001021964807F08AF9AFF27B111120FFF7B5
:103E300058FA1120FFF74BFAAFF2BF110B20FFF732
:103E400050FA0B20FFF743FA1CBD1FB5FFF75FFFC9
:103E50004FF00000ADF804004BF6FF70ADF806001F
:103E60004FF0AF00ADF808004FF48060ADF80A00E5
:103E70004FF48040ADF80C008B4800904FF00101EA
:103E80007F4807F0EAFE69467D4807F05AFE0121A7
:103E90007B4807F0CCFF4FF0A000844908801FBD8D
:103EA00010B5FFF7D2FF10BD70B504460D4616469B
:103EB0005EB97A4884604FF040007849C86008468F
:103EC0000561784807F05CF80AE0744884604FF0B8
:103ED00000007249C86008460561684807F050F85C
:103EE00070BD70B505460E461446664804604FF432
:103EF00020406649086008E064490868411E634A3A
:103F0000116010B9FFF7D2FE70BD4FF400315C486C
:103F100007F0F2FF0028EFD10121594807F0AAFE6F
:103F20004FF480505949086008E058490868411E1C
:103F3000564A116010B9FFF7B9FEE5E75C495048F1
:103F400007F0A5FF0028F0D0002258480088C1B231
:103F50004B4807F0A9FE4FF480504C49086008E038
:103F60004A490868411E494A116010B9FFF79EFE90
:103F7000CAE75049424807F08AFF0028F0D0F1B262
:103F80003F4807F020FF4FF480504049086008E0A8
:103F90003E490868411E3D4A116010B9FFF786FE90
:103FA000B2E735491C39364807F0A6FF0028EFD0A4
:103FB0000121334807F05EFE4FF48050334908601A
:103FC00008E032490868411E304A116010B9FFF715
:103FD0006DFE99E736492A4807F059FF0028F0D0CE
:103FE000012232480088C1B2254807F05DFE2088D2
:103FF000022877DA4FF480502449086008E023490A
:104000000868411E214A116010B9FFF74FFE7BE797
:1040100019491E391A4807F06FFF0028EFD0002118
:10402000174807F049FE244800884FF00101144862
:1040300007F02DFE4FF480501449086008E0134942
:104040000868411E114A116010B9FFF72FFE5BE7A7
:10405000094920310A4807F04FFF0028EFD00848EF
:1040600007F0B3FE28702088A0F1010020804FF4F3
:104070008050064908602AE02000001010600240CD
:104080000054004068000020000020206400002050
:104090006C0000200004024000003D20D8500020A9
:1040A00010540040A0600240801A0600600000200A
:1040B000010003008200070018540040FE49086810
:1040C000411EFD4A116010B9FFF7F0FD1CE7FB48E7
:1040D000008810F4007FF1D10121F84807F0ECFDD1
:1040E00021E0FFE74FF48050F349086008E0F2490F
:1040F0000868411EF04A116010B9FFF7D7FD03E7C9
:10410000EF49EE4807F0C3FE0028F0D021880122D5
:104110002846FFF7C9FE0121E84807F095FE012176
:10412000E84806F076FF0020EEE62DE9F04106466D
:104130000F4614464FF00305224639463046FFF736
:10414000D0FE09E0A5F10100C5B215B90120BDE816
:10415000F081022005F08AFD20880028F2D100BFFE
:10416000F5E70020704770B506460D461446D64860
:1041700004604FF42040D049086008E0CE49086848
:10418000411ECD4A116010B9FFF790FD70BD4FF48C
:104190000031CA4807F0B0FE0028EFD10121C7481E
:1041A00007F068FD4FF48050C349086008E0C24939
:1041B0000868411EC04A116010B9FFF777FDE5E7B6
:1041C000BF49491EBD4807F062FE0028EFD04FF4FA
:1041D0008050B94908604FF00002BC480088C1B265
:1041E000B64807F061FD4FF48050B349086008E01D
:1041F000B1490868411EB04A116010B9FFF756FD79
:10420000C4E7B349AD4807F042FE0028F0D0E9B258
:10421000AA4807F0D8FD4FF48050A749086008E08D
:10422000A5490868411EA44A116010B9FFF73EFD78
:10423000ACE7A749891EA14807F029FE0028EFD066
:104240002088C1B200223046FFF72EFE01219D4892
:10425000903006F0DEFE002098E72DE9F04780461A
:104260000E4615464FF000094F463C46A24606F062
:10427000FF0ACAF10000C4B24FEA1529EFB2BAF141
:10428000000F67D1B9F1000F1CD192480780024698
:1042900031464046FFF767FF4FF4204086490860EB
:1042A00009E085490868411E834A116018B9FFF783
:1042B000FDFCBDE8F087874800880028F1DCFFF7A7
:1042C00050FF21E121E04FF48070824908800A46C6
:1042D00031464046FFF747FF4FF4204076490860DB
:1042E00008E075490868411E734A116010B9FFF76C
:1042F000DDFCDEE7774800880028F2DCFFF731FFBD
:1043000006F5807086B208F580785FEA0900A9F1A9
:10431000010101F0FF09D6D1002FD2D06D480780EE
:10432000024631464046FFF71EFF4FF420406249E7
:10433000086008E060490868411E5F4A116010B9D2
:10434000FFF7B4FCB5E7634800880028F2DCFFF70C
:1043500008FFD9E0B9F1000F59D1A5423BDD5D4816
:104360000480024631464046FFF7FDFE4FF42040F0
:104370005149086008E050490868411E4E4A1160E2
:1043800010B9FFF793FC94E7524800880028F2DC4C
:10439000FFF7E7FEA5EB04004E49088006EB040298
:1043A00091B208EB04004B4AFFF7DDFE4FF42040CA
:1043B0004149086008E040490868411E3E4A1160D2
:1043C00010B9FFF773FC74E7424800880028F2DC5C
:1043D000FFF7C7FE98E03F48078002463146404657
:1043E000FFF7C1FE4FF420403349086008E032492E
:1043F0000868411E304A116010B9FFF757FC58E7B2
:10440000344800880028F2DCFFF7ABFE7CE0A5EB27
:10441000040085B24FEA1529EFB2F4B12D480480AB
:10442000024631464046FFF79EFE4FF420402249A7
:10443000086008E020490868411E1F4A116010B951
:10444000FFF734FC35E7234800880028F2DCFFF74B
:1044500088FE06EB040086B2A04421E04FF4807091
:104460001C4908800A4631464046FFF77CFE4FF45F
:1044700020401149086008E00F490868411E0E4AB3
:10448000116010B9FFF712FC13E7124800880028EA
:10449000F2DCFFF766FE06F5807086B208F58078DC
:1044A0005FEA0900A9F1010101F0FF09D6D15FB36C
:1044B0000848078002460FE06400002000540040D6
:1044C00002000300106002406C0000206000002029
:1044D000820007007000002031464046FFF743FE8F
:1044E0004FF420403549086008E034490868411E0F
:1044F000324A116010B9FFF7D9FBDAE6304800887C
:104500000028F2DCFFF72DFE00BFD2E62DE9F041D6
:1045100004460D4616464FF004002A4948833246A9
:1045200029462046FFF799FEFFF71BFEC7B24FF062
:1045300004002449088317B10120BDE8F081002060
:10454000FBE71CB50021204807F087FB1E4807F059
:10455000CFFA00214FF4001007F0CBFE4FF04000DF
:1045600000904FF000008DF804008DF807006946B8
:10457000164807F0D3F94FF08000009069461348C1
:1045800007F0CCF91120FEF794FE0B20FEF791FE08
:1045900000210F4806F03DFD00210D48903806F03F
:1045A00038FD0B4806F056FC0948903806F052FCDE
:1045B0001CBD10B5FFF7C5FF10BD00006400002052
:1045C000700000200000024000540040000402403F
:1045D000A060024010B1052816D10AE021B14FF4C5
:1045E0008052764B5A8303E04FF48052734B1A8308
:1045F0000BE021B14FF48062714B1A8003E04FF45D
:104600008062704B1A8000E0704700BF00BFFBE77C
:104610001CB50121084607F03FFE41F6040000905A
:104620004FF001008DF804004FF000008DF80600F7
:104630004FF002008DF805004FF001008DF80700E3
:1046400069465E4807F06AF90121022007F024FE5E
:104650004FF4E06000904FF001008DF804004FF03F
:1046600000008DF806004FF002008DF805004FF0B5
:1046700001008DF807006946534807F04FF94FF4E1
:1046800000604E4948834FF400704D4908804FF058
:1046900004004A4908834FF000010846FFF79AFFDB
:1046A00000210520FFF796FF1CBD4848006880F4F4
:1046B000807046490860704710B54FF40041424889
:1046C00007F0A5F910BD1FB50121202007F0E4FD7A
:1046D0000121880307F01CFE4FF000008DF8040054
:1046E0008DF807004FF0400000906946384807F009
:1046F00015F90621052007F037FF4FF04000029022
:104700004FF000008DF80C004FF00C008DF80D00FC
:104710004FF001008DF80E0002A806F098FD1FBDB5
:104720001FB50121202007F0B7FD0121880307F004
:10473000EFFD4FF000008DF804008DF807004FF0FA
:10474000800000906946224807F0E8F8072105201C
:1047500007F00AFF4FF0800002904FF000008DF844
:104760000C004FF00C008DF80D004FF001008DF89B
:104770000E0002A806F06BFD1FBD10B54FF000043F
:104780004FF0400006F0D4FD20B1402006F0E3FDDC
:104790004FF00104802006F0CBFD20B1802006F010
:1047A000DAFD44F002040B48D0F8300128B1094882
:1047B0000021D0F830212046904710BD0000024073
:1047C0001A0402401804024000040240140402408B
:1047D00000140240604E00201CB54FF001008DF81F
:1047E00004004FF000008DF806004FF002008DF835
:1047F00007008DF805004FF0000412E0464951F81B
:104800002400012107F048FD444830F814000090CE
:10481000434951F82400694607F080F804F101008B
:10482000C4B2032CEADB1CBD70B504460F2C10D1BA
:104830004FF000050AE0394A32F81510384A52F8AC
:10484000250007F006F905F10100C5B2032DF2DBE2
:104850000BE0032C08DC621E304B33F81210304B97
:1048600053F8220007F0F5F800BF00BF70BD70B527
:1048700004460F2C10D14FF000050AE0274A32F809
:104880001510274A52F8250007F0E1F805F101005C
:10489000C5B2032DF2DB0BE0032C08DC621E1F4BBC
:1048A00033F812101E4B53F8220007F0D0F800BF67
:1048B00000BF70BD10B50F2815D14FF000010FE0FB
:1048C000174A52F821205269144B33F8113082EA0A
:1048D0000302134B53F821305A6101F10102D1B2A6
:1048E0000329EDDB15E0032812DCA0F101020C4BDB
:1048F00053F822205269A0F10103084C34F8133018
:1049000082EA0302A0F10103054C54F823305A61F6
:1049100000BF00BF10BD0000B0FD0108A8FD0108E8
:104920007400002010B50121234808F07EFC68B116
:104930000121214808F08DFC2048D0F81C0128B145
:104940001E480021D0F81C210846904710BD3EB5F6
:104950000121022007F0CDFC194800684FEA500001
:104960001849B0FBF1F0A0F1010084B240F2DF1071
:1049700001904FF00000ADF80000ADF80800ADF870
:10498000020069460C4807F0E4FE012221460A486D
:1049900007F023FF01221146074808F025FC0121FA
:1049A000054807F070FFAFF283011D20FEF799FC68
:1049B0001D20FEF78CFC3EBD00040040604E002030
:1049C000F8000020808D5B0010B590B004460CB15B
:1049D000052C04D10121880507F05EFC03E00121CC
:1049E000480507F059FCFE4800EB44108068019030
:1049F000FC4850F824000390F94800EB441040684C
:104A000002904FF0400004904FF000000590069097
:104A10004FF4806007904FF00000089009900A90D2
:104A20004FF400300B904FF000000C904FF003005B
:104A30000D904FF000000E900F90E94901EB4411EA
:104A4000086801A906F09CFAE74951F82400012200
:104A5000802108F0A6FE10B010BD2DE9FC410446EF
:104A60000F4615461E46E14951F82410E04A52F817
:104A7000242041EA02004FF0010107F00DFC0CB1C7
:104A8000052C06D1DB4951F82400012107F040FC38
:104A900005E0D84951F82400012107F02AFCD64B43
:104AA0001A5DD64B195DD64B53F8240006F0DFFF94
:104AB000D44B1A5DD44B195DD44B53F8240006F047
:104AC000D6FF4FF000008DF806004FF001008DF882
:104AD00007004FF002008DF80400CD4830F81400B4
:104AE00000904FF002008DF80500C54951F82400F0
:104AF000694606F013FF4FF002008DF80400C54828
:104B000030F814000090C14951F82400694606F0BD
:104B100005FFB54951F82400002108F09AFDB2497B
:104B200051F82400394608F0DBFC65B1AE4951F874
:104B30002400314608F0AEFDAB4951F824004FF493
:104B4000006108F0BFFDA84951F82400012240F29D
:104B5000266108F035FEA44951F82400012240F2F4
:104B6000255108F02DFEA04951F8240001224FF4F0
:104B7000587108F025FE2046FFF726FF984901EB03
:104B8000441101220868102106F0D8FA944A02EB79
:104B900044129169924A02EB4412106806F0BAFA84
:104BA0009D4A52F824108E4A02EB4412908BFEF775
:104BB00098FB8B4901EB4411888BFEF788FB974AE1
:104BC00052F82410964A52F82400FEF78AFB9449C2
:104BD00051F82400FEF77BFB834951F824000121A2
:104BE00008F021FD804951F82400402108F031FEF1
:104BF0002DB17D4951F82400012108F056FD784976
:104C000001EB44110868002106F003FABDE8FC81BD
:104C100070B504460D46724901EB441108682946F7
:104C200006F018FA6E4901EB44110868012106F0FC
:104C3000F0F970BD10B50446694901EB44110868EC
:104C400006F037FA08B9012010BD0020FCE770B566
:104C50007448048814F0280F28D0C4F3C00020B191
:104C60004FF458716F4808F032FE6E4808F00DFDA1
:104C700005465C48A0F13000B0F8486001468969FB
:104C80008D55B0F8480000F101005649A1F13001FE
:104C9000A1F848000846B0F84800B1F8601000EAF2
:104CA00001005049A1F13001A1F84800C4F380107F
:104CB00060B140F226615B4808F009FE0021084619
:104CC000FFF788FC5849086804F0B9FA70BD70B560
:104CD0005648048814F0280F2DD0C4F3C00020B12A
:104CE0004FF45871514808F0F2FD504808F0CDFCDF
:104CF00005463C48A0F13000B0F84A60C0698555CF
:104D00003848A0F13000B0F84A0000F1010081B24B
:104D10003448A0F13000A0F84A10B0F84A003149F8
:104D2000A1F13001B1F8621000EA01002D49A1F1B2
:104D30003001A1F84A00C4F3801060B140F226614E
:104D40003A4808F0C4FD00210120FFF743FC364932
:104D5000486804F074FA70BD70B53548048814F0E2
:104D6000280F2DD0C4F3C00020B14FF45871304843
:104D700008F0ADFD2E4808F088FC05461948A0F162
:104D80003000B0F84C60006A85551648A0F130003C
:104D9000B0F84C0000F1010081B21248A0F13000DF
:104DA000A0F84C10B0F84C000E49A1F13001B1F858
:104DB000641000EA01000B49A1F13001A1F84C0098
:104DC000C4F3801058B140F22661194808F07FFD05
:104DD00000210220FFF7FEFB134988682AE02BE040
:104DE00034FE0108904E002080000020D4FD010810
:104DF000ECFD0108BCFD010828FE01081CFE0108AD
:104E0000980000202EFE010822FE0108B0000020BC
:104E100004FE010810FE0108C8000020E000002088
:104E2000F4FE01080010014014510020004400402D
:104E30000048004004F003FA70BD70B5B148048822
:104E400014F0280F23D0C4F3C00020B14FF45871E0
:104E5000AC4808F03CFDAB4808F017FC0546AA48F2
:104E6000B0F84E60406A8555A748B0F84E0000F192
:104E7000010081B2A448A0F84E10B0F84E00A2493B
:104E8000B1F8661000EA01009F49A1F84E00C4F392
:104E9000801060B140F226619A4808F018FD0021A8
:104EA0000320FFF797FB9949C86804F0C8F970BD63
:104EB00070B59748048814F0280F23D0C4F3C000BD
:104EC00020B14FF45871924808F001FD904808F065
:104ED000DCFB05468C48B0F85060806A85558A48EE
:104EE000B0F8500000F1010081B28748A0F85010DE
:104EF000B0F850008449B1F8681000EA0100824916
:104F0000A1F85000C4F3801060B140F226618048DF
:104F100008F0DDFC00210420FFF75CFB7B490869F9
:104F200004F08DF970BD70B57A48048814F0280F2C
:104F300023D0C4F3C00020B14FF45871754808F075
:104F4000C6FC744808F0A1FB05466F48B0F85260F3
:104F5000C06A85556C48B0F8520000F1010081B27A
:104F60006948A0F85210B0F852006749B1F86A10C9
:104F700000EA01006449A1F85200C4F3801060B156
:104F800040F22661634808F0A2FC00210520FFF7EB
:104F900021FB5E49486904F052F970BD10B55E48C6
:104FA0000468C4F3C06020B15C4AD168106806F0A0
:104FB00010F9C4F3406020B1584A1169106806F036
:104FC00008F9C4F3805020B1544A5169106806F0C2
:104FD00000F910BD10B552484468C4F3405020B1E8
:104FE0004E4AD16A106A06F0F4F8C4F3C04020B10A
:104FF0004A4A116B106A06F0ECF8C4F3004020B185
:10500000464A516B106A06F0E4F810BD10B54448EA
:105010000468C4F3C06020B1404AD16C106C06F043
:10502000D8F8C4F3406020B13C4A116D106C06F012
:10503000D0F8C4F3805020B1384A516D106C06F09E
:10504000C8F810BD10B536484468C4F3401020B10C
:10505000324AD16E106E06F0BCF8C4F3C00020B125
:105060002E4A116F106E06F0B4F814F0010F04D040
:105070002A4A516F106E06F0ACF810BD10B52848E2
:105080004468C4F3C06030B1244AD2F88C10D2F81E
:10509000800006F09EF8C4F3406030B11F4AD2F899
:1050A0009010D2F8800006F094F8C4F3805030B12C
:1050B0001A4AD2F89410D2F8800006F08AF810BD8F
:1050C00010B515480468C4F3405030B1134AD2F803
:1050D000AC10D2F8A00006F07CF8C4F3C04030B1A8
:1050E0000E4AD2F8B010D2F8A00006F072F8C4F35D
:1050F000004030B1094AD2F8B410D2F8A00006F04E
:1051000068F810BD004C0040604E00201451002093
:1051100000500040001401400464024034FE0108C5
:10512000006002404FF000010846674A126842F4EE
:105130008032654B1A6000BF634A126802F4003087
:1051400001F1010110B9B1F5A06FF5D15E4A126805
:1051500012F4003F02D04FF0010001E04FF00000D8
:10516000012833D1594A1268584B1A601A461268FE
:1051700042F400421A601A46126842F4A0521A60C1
:10518000534AA3F104031A604F4A126842F0807236
:105190004D4B1A6000BF4C4A126812F0007FFAD0E3
:1051A00040F203724B4B1A60484A126822F0030225
:1051B000464B1A601A46126842F002021A6000BF9B
:1051C000424A126802F00C02082AF9D1704710B561
:1051D0003D48006840F001003B4908604FF0000086
:1051E0003A490860384800683B4900EA01003649FE
:1051F00008603A4801F1040108603348006820F46F
:105200008020314908604FF0000035490860FFF701
:1052100089FF34483449086010BD70B54FF0000074
:1052200002464FF0020304464FF00201274D2D685D
:1052300005F00C0020B1042806D0082831D107E081
:105240002A4D2B4E356030E02A4D294E35602CE03A
:10525000294D2D68C5F38054274D2D6805F03F0179
:105260004CB1244DB5FBF1F5234E3668C6F38816D4
:1052700005FB06F208E01D4DB5FBF1F51E4E366844
:10528000C6F3881605FB06F21B4D2D68C5F30145D4
:1052900005F101054FEA4503B2FBF3F5144E356005
:1052A00003E0124D124E356000BF00BF074D2D6860
:1052B000C5F30315114E705D0D4D2D6825FA00F5EF
:1052C0000B4E356070BD00000038024008380240C7
:1052D000193C4005003C0240FFFFF6FE1030002460
:1052E0000C3802400000010808ED00E00024F40042
:1052F000F800002040787D0104380240FC000020C6
:1053000010B54FF0000400BF00BF00F07BFD044665
:1053100000BF00BF4FF01001C14800F00AFF00BFFE
:1053200000BF204600F072FD00BF00BF10BD10B5E9
:10533000FFF7E6FF10BD10B54FF00000B949086057
:10534000FDF78BFF10BD10B5FFF7F5FFFFF7EFFF7F
:1053500010BD00BFFEE770B505460C464FF00006D5
:1053600014B900BFFFF7F5FF1DB94FF00A00208008
:1053700070BD00BF00BF00F045FD064600BF00BF86
:105380004FF01002A649284600F0D7FF00BF00BF2B
:10539000304600F03BFD00BF00BF4FF00000208012
:1053A00000BFE5E72DE9F04105460C464FF0000748
:1053B00014B900BFFFF7CDFF25B94FF00A002080D8
:1053C000BDE8F0811021284600F09CFF0646102E13
:1053D00017D200BF00BF00F015FD074600BF00BF99
:1053E0004FF0100229468E4800F0A7FF00BF00BF13
:1053F000384600F00BFD00BF00BF4FF000002080DA
:1054000002E04FF47A70208000BFD9E710B5FDF7B5
:105410003BFF0446204610BD7047014611B900BF4E
:10542000FFF797FF7F4A106810B14FF0000201E0CC
:105430004FF4FA620A8070477A490860704770B585
:105440000546284600F0E9FC0446A4F1180420466D
:1054500070BD70B50546284600F0DFFC0446A4F197
:105460001004204670BD70B50546284600F0D5FCF6
:10547000044600BF204670BD2DE9F04F8BB00446B6
:105480000D464FF0FF314FF00000091BA84143D2F9
:105490004FF0FF31080C091BA8411DD24FF0FF311E
:1054A000080A091BA8410AD23822A046A94640464C
:1054B000494608F020FA06465B498F5D69E03022D4
:1054C000A246AB465046594608F015FA06465649DC
:1054D000885D00F108075CE04FF0FF31FF20091BF9
:1054E000A8410CD2282220462946CDE9015408F0D3
:1054F00002FA06464C49885D00F1100749E0202277
:1055000020462946CDE9035408F0F5F906464649F8
:10551000885D00F118073CE04FF6FF710020091B81
:10552000A8411FD26FF07F410020091BA8410CD277
:10553000182220462946CDE9055408F0DCF9064634
:105540003949885D00F1200723E0102220462946D2
:10555000CDE9075408F0CFF906463349885D00F1DC
:10556000280716E0FF210020091BA8410CD20822C1
:1055700020462946CDE9095408F0BDF906462A49D6
:10558000885D00F1300704E026462748805D00F181
:10559000380738460BB0BDE8F08F70B504460CB93B
:1055A000082070BD204600F03BFC05462846F8E781
:1055B00070B504460CB9102070BD204600F030FCD8
:1055C00005462846F8E770B504460CB9202070BDA2
:1055D000204600F025FC05462846F8E72DE9F0476F
:1055E00004460D464FF0000184EA010085EA0101FE
:1055F000084302D14020BDE8F087E243E843521C53
:1056000040F1000102EA040601EA05073046394686
:10561000FFF732FF8046C8F13F094846EBE700003C
:105620002C5100200C0100200CFF010810B5B0F136
:10563000005F0CD3F74CA04209D84FEA401404EBAA
:10564000810303F108524FF0000414600EE0B0F142
:10565000804F0BD3F04CA04208D84FEA401404EB23
:10566000810303F184424FF00004146010BD10B5B3
:10567000B0F1005F0CD3E74CA04209D84FEA4014C8
:1056800004EB810303F108524FF0010414600EE0B3
:10569000B0F1804F0BD3E04CA04208D84FEA401441
:1056A00004EB810303F184424FF00104146010BD48
:1056B0002DE9F04104464FF00008102C6BD2DFE8D2
:1056C00004F0080E0F1014293E090A0B0C11120DDC
:1056D000135300BF00BF00BF00BF00BF91E000BF79
:1056E00000BF00BF00BF00BF8BE000BF00BF00F0E5
:1056F00089FB804600BF00BFC848006820F48030A6
:10570000C649086000BF00BF404600F07FFB00BFF5
:1057100000BF76E000BF00BF00F074FB804600BF12
:1057200000BFBE48006820F40030BC49086000BFDC
:1057300000BF404600F06AFB00BF00BF61E000BF51
:1057400000BF00F05FFB804600BF00BFB3480068A9
:1057500020F48020B149086000BF00BF404600F03F
:1057600055FB00BF00BF4CE000BF00BF00F04AFB8C
:10577000804600BF00BF4FF0E020006920F001002C
:105780004FF0E021086100BF00BF404600F03EFB43
:1057900000BF00BF35E04FF0E020406800F101009D
:1057A0004FF0100101EB4010C6B2B44228DAA4F168
:1057B00010004FEAE07100EBD161C1F347154FEAE9
:1057C000E07100EBD1614FEA6111A0EB4111CFB262
:1057D00000BF00BF00F016FB804600BF00BF4FF0C7
:1057E000010000FA07F04FF0E02101EB8501C1F85C
:1057F000800100BF00BF404600F008FB00BF00BFB3
:1058000000BF00BFBDE8F0812DE9F04104464FF034
:105810000008102C6BD2DFE804F0080E0F101429DA
:105820003E090A0B0C11120D135300BF00BF00BF3D
:1058300000BF00BF91E000BF00BF00BF00BF00BFBE
:105840008BE000BF00BF00F0DDFA804600BF00BF64
:105850007248006840F480307049086000BF00BFA3
:10586000404600F0D3FA00BF00BF76E000BF00BFA3
:1058700000F0C8FA804600BF00BF6848006840F4E6
:1058800000306649086000BF00BF404600F0BEFA25
:1058900000BF00BF61E000BF00BF00F0B3FA804668
:1058A00000BF00BF5D48006840F480205B4908608D
:1058B00000BF00BF404600F0A9FA00BF00BF4CE0A7
:1058C00000BF00BF00F09EFA804600BF00BF4FF04F
:1058D000E020006940F001004FF0E021086100BFC6
:1058E00000BF404600F092FA00BF00BF35E04FF025
:1058F000E020406800F101004FF0100101EB401082
:10590000C7B2BC4228DAA4F110004FEAE07100EB04
:10591000D161C1F347154FEAE07100EBD1614FEA65
:105920006111A0EB4111CEB200BF00BF00F06AFAD6
:10593000804600BF00BF4FF0010000FA06F04FF0B4
:10594000E02101EB8501C1F8000100BF00BF404626
:1059500000F05CFA00BF00BF00BF00BFBDE8F081EF
:105960002DE9F04104464FF00008102C19D2DFE871
:1059700004F0080E0F10111516090A0B0C12130D66
:10598000141700BF00BF00BF00BF00BF3FE000BF53
:1059900000BF00BF00BF00BF00BF00BF00BF00BF0F
:1059A00035E04FF0E020406800F101004FF01001B9
:1059B00001EB4010C7B2BC4228DAA4F110004FEA54
:1059C000E07100EBD161C1F347154FEAE07100EBE4
:1059D000D1614FEA6111A0EB4111CEB200BF00BF0F
:1059E00000F010FA804600BF00BF4FF0010000FA3F
:1059F00006F04FF0E02101EB8501C1F8800200BF05
:105A000000BF404600F002FA00BF00BF00BF00BF69
:105A1000BDE8F081FFFF0F20FFFF0F4024ED00E005
:105A20002DE9F05F06460D464FF0000B284600F0CA
:105A3000FCF982464FEA1A65102E7CD2DFE806F0A8
:105A4000080E0F1011273D090A0B0C53690D8197A1
:105A500000BF00BF00BF00BF00BFE0E000BF00BF4D
:105A6000DDE000BF00BF00F0CDF9834600BF00BFFE
:105A7000DD48046824F0FF0444EA0504046000BF24
:105A800000BF584600F0C2F900BF00BFC7E000BF2A
:105A900000BF00F0B7F9834600BF00BFD2480468DA
:105AA00024F47F4444EA0524046000BF00BF584644
:105AB00000F0ACF900BF00BFB1E000BF00BF00F0D4
:105AC000A1F9834600BF00BFC748046824F47F04DF
:105AD00044EA0544046000BF00BF584600F096F950
