:020000040800F2
:10000000D0130120A92D00081D0400081F040008BA
:1000100023040008270400082B0400080000000047
:100020000000000000000000000000002F04000895
:100030003104000800000000330400083504000803
:10004000C32D0008C32D0008C32D0008C32D0008D0
:10005000C32D0008C32D0008C32D0008C32D0008C0
:10006000C32D0008C32D0008C32D0008C32D0008B0
:10007000C32D0008C32D0008C32D0008C32D0008A0
:10008000C32D0008C32D0008C32D0008C32D000890
:10009000C32D0008C32D0008C32D0008C32D000880
:1000A000C32D0008C32D0008C32D0008C32D000870
:1000B000C32D0008C32D0008C32D0008C32D000860
:1000C000C32D0008C32D0008C32D0008C32D000850
:1000D000C32D0008C32D0008C32D0008C32D000840
:1000E000C32D0008C32D0008C32D0008C32D000830
:1000F000C32D0008C32D0008C32D0008C32D000820
:10010000C32D0008C32D0008C32D0008C32D00080F
:10011000C32D0008C32D0008C32D0008C32D0008FF
:10012000C32D0008C32D0008C32D0008C32D0008EF
:10013000C32D0008C32D0008C32D0008C32D0008DF
:10014000C32D0008C32D0008C32D0008C32D0008CF
:10015000C32D0008C32D0008990400083D040008C1
:10016000C32D0008C32D0008C32D0008C32D0008AF
:10017000C32D0008C32D0008C32D0008C32D00089F
:10018000C32D000800F002F800F03CF80AA090E847
:10019000000C82448344AAF10107DA4501D100F042
:1001A00031F8AFF2090EBAE80F0013F0010F18BFD3
:1001B000FB1A43F00103184784340000A434000004
:1001C000103A24BF78C878C1FAD8520724BF30C883
:1001D00030C144BF04680C60704700000023002455
:1001E00000250026103A28BF78C1FBD8520728BF47
:1001F00030C148BF0B6070471FB503F0D9F81FBD71
:1002000010B510BD03F006F81146FFF7F5FF00F03A
:10021000F7F903F024F803B4FFF7F2FF03BC03F08F
:100220002DF80000EFF30980704780F309887047CC
:10023000EFF30880704780F30888704740BA704732
:10024000C0BA70474FF000010846674A126842F48E
:100250008032654B1A6000BF634A126802F40030B6
:1002600001F1010110B9B1F5A06FF5D15E4A126834
:1002700012F4003F02D04FF0010001E04FF0000007
:10028000012833D1594A1268584B1A601A4612682D
:1002900042F400421A601A46126842F4A0521A60F0
:1002A000534AA3F104031A604F4A126842F0807265
:1002B0004D4B1A6000BF4C4A126812F0007FFAD012
:1002C00040F203724B4B1A60484A126822F0030254
:1002D000464B1A601A46126842F002021A6000BFCA
:1002E000424A126802F00C02082AF9D1704710B590
:1002F0003D48006840F001003B4908604FF00000B5
:100300003A490860384800683B4900EA010036492C
:1003100008603A4801F1040108603348006820F49D
:100320008020314908604FF0000035490860FFF730
:1003300089FF4FF000603349086010BD70B54FF081
:10034000000002464FF0020304464FF00201274D21
:100350002D6805F00C0020B1042806D0082831D102
:1003600007E0294D294E356030E0294D274E356094
:100370002CE0284D2D68C5F38054264D2D6805F0DE
:100380003F014CB1224DB5FBF1F5224E3668C6F364
:10039000881605FB06F208E01B4DB5FBF1F51D4E76
:1003A0003668C6F3881605FB06F21A4D2D68C5F3AC
:1003B000014505F101054FEA4503B2FBF3F5134E84
:1003C000356003E0104D114E356000BF00BF074D92
:1003D0002D68C5F30315104E705D0C4D2D6825FA80
:1003E00000F50A4E356070BD003802400838024002
:1003F000193C4005003C0240FFFFF6FE103000248F
:100400000C38024008ED00E00024F4000000002059
:1004100040787D010438024004000020704700BF8E
:10042000FEE700BFFEE700BFFEE700BFFEE7704744
:100430007047704710B500F07EFD10BD10B525481F
:10044000048814F0280F18D014F0080F03D04FF4CC
:10045000587102F094FC1F4802F06FFB1E491F4ABE
:10046000128888541D48008800F101001B4908804B
:1004700008460088C0F30E00088014F0400F0AD030
:1004800040F22661134802F07AFC00F05BFC4FF06A
:1004900001001349087210BD10B51248046814F029
:1004A000006F04D010490F48B43001F050FB14F035
:1004B000007F05D04FF008510A48B43001F047FBE7
:1004C00014F4800F05D04FF001510648B43001F00C
:1004D0003EFB10BD00140140CC8800201400002019
:1004E000A400002004640240008000282DE9F041AF
:1004F0004FF00005914F4FF010029149384600F03F
:10050000C4FB0E218E4800F02BFD04468C48C07BB6
:100510008B49897B00EB012086B2B44226D1884802
:100520000078612822D18648407841281ED184482D
:10053000807873281AD18248C078862816D18048DE
:100540000079102812D17E48407978B97C488079AA
:1005500020280BD17A48C079132807D17848007A2F
:10056000102803D17648407A10282FD04FF0610030
:10057000734908704FF0410048704FF07300887065
:100580004FF08600C8704FF0100008714FF0000067
:1005900048714FF0200088714FF01300C8714FF080
:1005A0001000087248724FF000008872C872087319
:1005B00048734FF00E01624800F0D2FC04464FEA47
:1005C00024205F498873CC734FF0010535B11022A8
:1005D0005B49384600F000FB054600BFBDE8F081EE
:1005E00010B51821574802F0EBFD4FF016005549A1
:1005F00088704FF0FF00C8714FF00100087210BD05
:1006000070B54FF47A7000F05DFCFFF7E9FF01F080
:1006100015FBFFF76BFF00F04BFB4B4800684B49A5
:10062000884206D14FF00000474908604FF00104AE
:1006300002E000F097FB0446002C38D04FF4006035
:10064000434948834FF400704249088000F07AFB28
:1006500000F066FB00F09EFB00F0A4FB00F0A8FC9D
:100660004FF001003749487147F2305008614FF0B0
:100670000000C86011E000F099FF00F095FD04460D
:10068000082C0AD14FF0000503E000BF05F101007E
:1006900085B2B5F5004FF8DB05E02A48C068294966
:1006A00009698842E7D300BF00F0A4FC24E00B20D6
:1006B00002F09AFB0B2002F0C3FB4FF0000021492F
:1006C000C8604FF00B0002F0B3FB4FF000001D4973
:1006D000C8604FF00B0002F087FB0B2002F0B0FB6C
:1006E0004FF000001749C8604FF00B0002F0A0FB6C
:1006F0004FF000001349C8604FF4006014490883AC
:100700004FF400701449088001F098FA134800680B
:1007100013490840B0F1005F0ED1104840681149FC
:10072000086008460068104908600C490868FFF72F
:1007300082FD0D4800688047002070BD00800008E1
:10074000BC000020A4000020FC7F012093556273B0
:10075000000002401A040240180402400000010890
:100760000000FE2F1C000020180000204FF00001A8
:10077000C17181710170417001754FF0FF0101710C
:100780004FF00001417501737047F0B503460D4607
:1007900016464FF0000427468CE115F8012B04F1B2
:1007A0000100C4B20A2A27D00D2A17D03A2A41D113
:1007B000187818B9987908B9D87910B144F0400080
:1007C000F0BD1879FF2802D044F04000F8E7184641
:1007D000FFF7CCFF4FF00100187067E1187810B9EF
:1007E00044F04000ECE7987910B144F04000E7E7AE
:1007F0004FF00100987159E1187810B944F04000A9
:10080000DEE7987910B944F04000D9E758780A211A
:1008100001EB4000197D884202D044F04000CFE750
:100820001879FF2802D144F04000C9E71846FFF7C5
:100830009DFF3BE1187818B1987908B9D87910B1C3
:1008400044F04000BCE710463A2805DA2F2803DDC3
:10085000A0F13001C9B209E0472805DA402803DDDC
:10086000A0F13701C9B201E04FF0FF010A46FF2AAB
:1008700002D144F04000A3E7187D082867D2DFE8E2
:1008800000F0040A171D2227353B4FEA02704FEA99
:100890001060587004E1587840EA020058705878A7
:1008A000102802DD44F040008AE758785875F7E0D8
:1008B0004FEA02704FEA10405880F1E0588840EA51
:1008C00002205880ECE0588840EA02105880E7E0A7
:1008D000588840EA02005880597D58880844587565
:1008E000587D598800EB21205875D9E04FEA0270F5
:1008F0004FEA10601871D3E0187940EA02001871CD
:10090000587D197908445875187906281AD2DFE8F5
:1009100000F003040A19111817E0587810B144F0D8
:1009200040004DE711E05878022802D044F0400022
:1009300046E70AE05878022802D044F040003FE73A
:1009400003E002E044F040003AE700BFA8E0187D71
:1009500059784FF00A0C0CEB4101884202DB44F05D
:1009600040002DE7187D59784FF0080C0CEB410141
:10097000884205D14FEA02704FEA106058718EE04C
:10098000187D59784FF0090C0CEB4101884212D1C7
:10099000587940EA020058715879597D08445871D5
:1009A000587910B144F040000AE71879012876D14F
:1009B00044F0800004E71879042829D1187D08281C
:1009C00003D14FEA0270186169E0187D092804D14B
:1009D000186940EA0260186161E0187D0A2804D1B4
:1009E000186940EA0250186159E0187D0B2856D169
:1009F000186940EA02401861587D1969C1F307413E
:100A000008445875597D186901EB1060587546E027
:100A1000187905280CD1187D10F0010F04D1587DEC
:100A200000EB021058753AE0587D1044587536E0D6
:100A3000187980BB187D10F0010F0ED14FEA0270BB
:100A40004FEA106193F80CC003F1080000F80C1095
:100A5000587D00EB0210587521E0587D1044587500
:100A600093F80CC003F108010CEB0100017841EA96
:100A700002010170187B00F101001873187B00F06F
:100A800003001873187B50B9187D00F10100187528
:100A900044F0C00094E6FFE744F0400090E600BF59
:100AA00000BF187D00F10100187500BF00BF07F1FD
:100AB000010087B2B742FFF670AE204680E62DE90E
:100AC000F04105460E464FF0030815E04FF00007D1
:100AD00001F0A8F82C460AE00221204601F0EAF8CD
:100AE000082802D04FF0010703E004F10804B442E3
:100AF000F2D900BF07B906E05FEA0800A8F10101DA
:100B000001F0FF08E2D100BF3846BDE8F08170B5C2
:100B100004460D462946204601F074F9082806D1FE
:100B20002668AE4201D0012070BD0020FCE7012004
:100B3000FAE72DE9F04104460E464FF003083F2C3A
:100B400002D90520BDE8F0813CE04FF0000701F03C
:100B500069F8B32001F082FA01F04FFA00EA0405C7
:100B6000B6B16DB301F0BEF90121204601F0CDF917
:100B700001F030FA082801D04FF0010701F0BEF96A
:100B800001F03BFA00EA0405D5B14FF0010717E088
:100B9000A54215D001F0A6F90021204601F0B5F9D3
:100BA00001F018FA082801D04FF0010701F0A6F96A
:100BB00001F023FA00EA0405A54201D04FF0010735
:100BC00007B906E05FEA0800A8F1010101F0FF089B
:100BD000BBD100BF3846B5E72DE9F05F07468B462D
:100BE00090464FF000014FF00400FFF7A2FF10B154
:100BF0000220BDE8F09F10210846FFF760FF08B112
:100C00000320F6E75E463D464FF0000417E056F835
:100C10002410284601F0F6F88246BAF1080F07D1F1
:100C2000D5F8009056F82400484503D00520E0E7A9
:100C30000420DEE705F1040504F1010084B2B4EB01
:100C4000A80FE4DB3D464FF000040CE0D5F800901F
:100C500056F82400484501D00520CAE705F10405EF
:100C600004F1010084B2B4EBA80FEFDB01210420F2
:100C7000FFF75FFF08B10620BBE701210420FFF763
:100C800058FF00F0DBFF0020B3E730B50B461C46F1
:100C90004FF0000107E0056844F8215000F104001E
:100CA00001F10105A9B2B1EBA20FF4DB30BD0000E8
:100CB00010B50121084601F0C3FC4FF400402E4955
:100CC00008604FF00000087188714FF00200487111
:100CD0004FF00100C871294801F03AFA4FF4C050B2
:100CE000254908604FF001000871244801F030FAEE
:100CF0000121022001F0A4FC4FF4E0601E490860CD
:100D00004FF0010008714FF0000088714FF00200B1
:100D100048714FF00100C871194801F019FA10BD6F
:100D20004FF05000174908704FF000007047002046
:100D300070474FF48050114948834FF48060124946
:100D4000088070474FF480500C4908834FF480604E
:100D50000E49088070470E48006880F480700C4986
:100D60000860704710B54FF40041044801F069FA7B
:100D7000012121EA000010BD2000002000000240F7
:100D800000040240A40000201A040240180402409B
:100D90001404024010B5092002F026F80A2002F0DF
:100DA00023F810BD10B5092002F04AF80A2002F01D
:100DB00047F84FF000004049C86000BF3E48C06897
:100DC000B0F5FA7FFAD3092002F032F80A2002F0D7
:100DD0002FF84FF000003849C86000BF3648C0689F
:100DE000B0F5967FFAD310BD10B53348407990B373
:100DF0003148C07880B331480068B0F5FA7F0DD330
:100E00000A2002F015F84FF000002C4908602A482B
:100E1000C078A0F101002849C87025E02748006883
:100E20006421B0FBF1F201FB120018B90A2002F0B4
:100E300007F80AE0214800683221B0FBF1F201FB1B
:100E4000120010B90A2001F0F3FF1C48006800F1FD
:100E500001001A49086007E0FFE70A2001F0E8FFF7
:100E60004FF000001549086010BD10B512484079D8
:100E7000C0B113480068642807D3092001F0E0FFDF
:100E80004FF000000E4908600CE00D48006800F1CA
:100E900001000B49086008460068322802D1092089
:100EA00001F0C6FF10BD10B5FFF7DFFFFFF79CFF95
:100EB00010BD704770477047A40000202C00002030
:100EC0002800002070B5034621480068B0FBF3F10C
:100ED000B1F1807F02D34FF0010028E021F07F4084
:100EE000A0F101004FF0E02250614FF0FF304FF0D1
:100EF0000F0200280ADA4FEA02744FEA1466154C12
:100F000000F00F05A5F10405665505E04FEA0274EF
:100F10004FEA1465104C255400BF4FF000004FF00D
:100F2000E02290614FF0070010614FF0000008B11F
:100F300000BFFEE770BD10B50848C06800F10100B1
:100F40000649C860FFF7AFFFFFF705FF10BD0000BF
:100F50000000002018ED00E000E400E0A400002004
:100F600030B502464FF0000000BF12F8013B83EAA3
:100F70002024FB4D35F8144084EA0024A0B2A1F1EE
:100F800001042100F1D130BD70B50346104600BF09
:100F900013F8014B84EA2025F14E36F8155085EA06
:100FA0000025A8B2A1F10105ADB22900F0D170BDB4
:100FB00010B58C21EB4802F0E1F84FF0FF00EA4950
:100FC00008714FF4E130E94908604FF00000888073
:100FD000C880088188814FF00C004881E448E549C9
:100FE0000860E54848600A46E0494FF0000001F01B
:100FF00088FF10BD10B5002002F03CF810BD10B500
:10100000012002F037F810BD2DE9FF4F83B0814673
:101010008A469346109F00BFD848007A0028FBD02C
:10102000FFF787FED24D07F108004FEA10208DF838
:10103000040007F10800C0B28DF805008DF806B075
:101040004FF000008DF8070006988DF808004FF06B
:1010500000008DF809008DF80A908DF80BA04FF074
:10106000080101A8FFF77CFF8046424639461198E7
:10107000FFF78AFF80464FF0100028704FF0020003
:10108000687004464FF0000611E001A8805D285505
:10109000285D102805D104F1010084B24FF0100042
:1010A000285504F1010084B206F1010086B2082E31
:1010B000EBDB4FF0000611E01198805D2855285DAC
:1010C000102805D104F1010084B24FF0100028551A
:1010D00004F1010084B206F1010086B2BE42EBDBEE
:1010E0004FEA28202855285D102805D104F1010079
:1010F00084B24FF01000285504F1010084B205F8C5
:101100000480285D102805D104F1010084B24FF05D
:101110001000285504F1010084B24FF0100220465F
:1011200004F101018CB22A544FF00302204604F16D
:1011300001018CB22A5491480079022805DA8F48BF
:10114000007900F101008D4908714FF4FA6001F057
:10115000E7FF21468A4800F03BFC0121884800F067
:1011600016FC07B0BDE8F08F4FF082017D4AD171C7
:101170004FF0030111728049097851727E494A7813
:1011800078498A72C87270474FF00201754A11722D
:101190001146C979517278490A7872498A724FF0BA
:1011A0000101704AD17170472DE9FC5F4FF00007D3
:1011B000BB467248C079FF2872D07048C0790A28AF
:1011C00022D100213020FFF7B4FC07462FB10520C3
:1011D000FFF7CAFF4FF0050B16E028212020FFF78C
:1011E0006EFC07462FB10620FFF7BEFF4FF0060B3F
:1011F0000AE05D48FFF7BAFA4FF001005F498871D5
:101200004FF00000FFF7C0FF5C48C079002876D19E
:10121000002FFCD1584DAD1C4FF001097CE0514826
:10122000B0F88A2029465048FFF7AFFA044604F088
:10123000C008B8F1000F11D0B8F1400F06D0B8F1D6
:10124000800F5DD0B8F1C00F62D115E00320FFF729
:101250008BFF4FF0030B4FF000095CE04148B0F802
:101260008A0004F03F01A0EB01003E49A1F88A008A
:1012700004F03F0005444EE03B4800693A49498884
:1012800000EB01063F48864202D33F48864208D918
:101290000320FFF769FF4FF0030B4FF000092DE02B
:1012A0005BE03148017A407A01EB00212E48807AD8
:1012B00001EB00412C48C07A01EB006A51463046F0
:1012C000FFF725FC38B10720FFF74EFF4FF0070B63
:1012D0004FF0000912E004F03F0005442148B0F847
:1012E0008A0004F03F01A0EB01001E49A1F88A002A
:1012F0001D48408800F104001B4948800BE013E0C2
:101300000020FFF731FF4FF0080B4FF0000900BF3E
:101310004FF0000900BF00BF1248B0F88A0018B1B2
:10132000B9F1000F7FF47BAF0E4809300D49097AFF
:10133000DFF830C0CDE900109CF802309CF80420A2
:101340009CF807109CF80600FFF75EFE4FF00000C7
:101350000A49C8604FF0FF00C8715846BDE8FC9FBD
:10136000BE330008CC08012058090120BC400020F1
:10137000CC80002040000020CC400020A4000020B1
:10138000B864024000000108FFFF03087047C1482D
:1013900000880F2801D001207047BE48807880283F
:1013A00001D00220F8E7BC480078AA2805D0BA4846
:1013B0000078552801D00320EEE7B7488079B64B76
:1013C0001B78984201D00420E6E7B34840783F28D4
:1013D00001DD0520E0E7B04A921C901E0078AA28A3
:1013E00008D1AE4B1068984201D00620D4E74FF0E8
:1013F00010010BE0A8480078552807D1A84B1068C9
:10140000984201D00720C7E74FF000010846C3E724
:10141000A1480078A04A527800EB022081B2A1488E
:101420008079012806D04FF003009E4AD0714FF01A
:101430000100704797480088A0F10A00954AA2F879
:101440008A00984881824FF00000964AD07100BF10
:10145000EFE710B58F48C07911280ED006DC0228BE
:101460003BD003283AD0082867D124E0122819D0AD
:1014700014281FD0AA2860D131E08748C07800F036
:101480007F0088498978884207D04FF0010085495C
:10149000C871C879FFF778FE10BD4FF00A00814986
:1014A000C8714BE0FFF7B4FF04467E49C879FFF7E7
:1014B0005BFE43E042E07C487C4908604FF001015C
:1014C0004FF03000FFF735FB00F0B8FB4FF00000A5
:1014D0004FF0E021086100BFFEE72FE02EE0FFF7AC
:1014E00056FF044614F00F0F10D04FF00A00694960
:1014F00088714FF0AB00C8714FF0010008720846C8
:1015000044724FF009006749C87115E02111624A21
:101510005078FFF70EFB04464FF00A005D498871D2
:101520004FF0AB00C8714FF00100087208464472DA
:101530004FF0CC005B49C87100E000BF00BF00BFA6
:10154000AAE7F0B553480088801C594909888842A9
:1015500001D00320F0BD4F4804884FEA242000EB5F
:1015600004204C4908800F464FF008013846FFF729
:10157000F7FC0546484FA4F1080081B22A463846D8
:10158000FFF702FD0546A4F107003946095CA4F106
:1015900008003A46105C01EB002086B2B54201D04B
:1015A0000420D7E73B4804800020D3E770B54148CA
:1015B00006886AE040480188008800F101003E4A40
:1015C00010803E48445C10460088C0F30E0011466F
:1015D00008803B480078002843D0102C0ED13948B1
:1015E000007818B92046374908704EE0204601F0CF
:1015F0006DFE4FF000003349087046E03148007836
:1016000010282AD1022C02D0032C1CD103E0012087
:1016100001F03CFE1BE0FFF794FF054665B9214849
:10162000C078022805DA1F48C07800F101001D4982
:10163000C870FFF70EFF02E02846FFF7A7FE002064
:1016400001F024FE03E0204601F040FE00BF00BF91
:101650004FF000001B49087017E0204601F036FEED
:1016600013E0102C03D12046164908700DE0022C1F
:1016700007D114480078102803D1012001F006FE9C
:1016800003E04FF000000F4908700B480088B0429B
:1016900090D170BDCC080120CC400020316254763E
:1016A00062317654A400002093556273FC7F0120C0
:1016B000380000201400002036000020CC880020D4
:1016C0003A0000203B0000203A4940EA01013A4A32
:1016D0001160704770B54FF000010B464FF00F02DC
:1016E000C4786CB3344C246804F4E064C4F5E0645A
:1016F000C4F30721C1F10404E3B242FA01F24478D1
:1017000004FA03F4E1B2847804EA020444EA010131
:101710004FEA01744FEA1461284C0578615504784A
:1017200004F01F054FF0010404FA05F405784FEAB0
:1017300065154FF0E02606EB8505C5F800410CE085
:10174000047804F01F054FF0010404FA05F41C4D61
:1017500006784FEA661645F8264070BD194A01EA38
:10176000020242EA0002184B1A60704731B1174A70
:10177000126842EA0002154B1A6005E0134A12682B
:1017800022EA0002114B1A607047042808D14FF07A
:10179000E021096941F004014FF0E022116107E006
:1017A0004FF0E021096921F004014FF0E0221161BE
:1017B000704700000000FA050CED00E000E400E0D6
:1017C00080E100E080FFFF1F08ED00E010ED00E089
:1017D000016821F0010101604FF0000101604160EA
:1017E0008160C16001614FF021014161E24988429D
:1017F00004D14FF03D01E14A91607EE0DE491831AD
:10180000884204D14FF47461DC4A916075E0DA4992
:101810003031884204D14FF47411D84A91606CE0A1
:10182000D5494831884204D14FF07461D34A916060
:1018300063E0D1496031884203D1D149CF4AD160B8
:101840005BE0CD497831884203D1CE49CB4AD160A3
:1018500053E0C9499031884203D1CB49C74AD1608E
:101860004BE0C549A831884204D14FF03D51C34AED
:10187000D16042E0C549884204D14FF03D01C44ADD
:1018800011603AE0C1491831884204D14FF47461C3
:10189000BF4A116031E0BD493031884204D14FF474
:1018A0007411BB4A116028E0B8494831884204D11C
:1018B0004FF07461B64A11601FE0B449603188424C
:1018C00003D1AF49B34A116017E0B049783188427B
:1018D00003D1AC49AF4A11600FE0AC499031884266
:1018E00003D1A949AB4A116007E0A849A831884251
:1018F00003D14FF03D51A74A1160704710B54FF02A
:1019000000020268A44B02EA0302CC680B6843EAB7
:1019100004034C6943EA04038C6943EA0403CC6979
:1019200043EA04030C6A43EA04034C6A43EA0403EF
:101930008C6A43EA04034C6B43EA04038C6B43EA6E
:10194000040343EA02020260426922F00702D1E97D
:101950000B3443EA040343EA020242610B69436029
:101960004B6883608B68C36010BD4FF0000101605D
:1019700041608160C160016141618161C161016259
:1019800041628162C162016341638163704721B139
:10199000026842F00102026003E0026822F00102E4
:1019A0000260704721B1026842F40042026003E025
:1019B000026822F400420260704721B1026842F0DE
:1019C0002002026003E0026822F0200202607047F9
:1019D000416070470146486880B2704722B1036891
:1019E00043F40023036003E0036823F4002303604F
:1019F0000161704721B1026842F48022026003E075
:101A0000026822F48022026070470AB1016100E09E
:101A1000C160704701464FF000000A6812F4002FC1
:101A200002D04FF0010001E04FF000007047014686
:101A30004FF000000A6812F0010F02D04FF00100D1
:101A400001E04FF00000704701464FF000004A6986
:101A500002F03800704730B503460A464FF00000E8
:101A600004464A4DAB4201D2444900E04B4912F0D2
:101A7000005F01D04C6800E00C68494D04EA0504A1
:101A8000144202D04FF0010001E04FF0000030BDE1
:101A900002463E4B9A4201D2384800E03F4811F0DE
:101AA000005F04D03E4B01EA0303C36003E03C4BFC
:101AB00001EA03038360704710B511F0800F09D06D
:101AC00022B1436943F08003436103E0436923F09B
:101AD0008003436180290DD032B1036801F01E04F8
:101AE00043EA0403036005E0036801F01E0423EAEF
:101AF0000403036010BD70B502464FF000000446B9
:101B00000546224EB24201D21C4B00E0234B254E2B
:101B1000314207D04FF01E0606EAD124166806EAC5
:101B2000040502E0566906F0800511F0005F01D05F
:101B30005C6800E01C681A4E04EA06040C4203D0FC
:101B400015B14FF0010001E04FF0000070BD0246FA
:101B50000E4B9A4201D2094800E0104811F0005F94
:101B600004D00F4B01EA0303C36003E00C4B01EA0E
:101B70000303836070470000106002400060024071
:101B80003D000020400F002000003D201064024076
:101B9000086402400C6402403F801CF00064024074
:101BA0007D0F7D0F3C0F3C0FF84A1070704730B12D
:101BB000F649096841F48071F44A116005E0F3497F
:101BC000096821F48071F14A1160704730B1EF4922
:101BD000096841F40071ED4A116005E0EB490968BC
:101BE00021F40071E94A1160704730B1E749096892
:101BF00041F48061E54A116005E0E449096821F497
:101C00008061E24A11607047E048006840F400607B
:101C1000DE4908607047DD48006840F48050DB49C9
:101C200008607047D9481030006810F0004F04D0A9
:101C3000D748D8490860D84808607047D748006836
:101C400040F00040D549086070474FF00800D44983
:101C5000096801F48031B1F5803F02D14FF00100F5
:101C600019E0CF49096811F0100F02D04FF00500BC
:101C700011E0CB49096811F0EF0F02D04FF00600D8
:101C800009E0C749096811F0020F02D04FF00700C0
:101C900001E04FF00800704700B54FF00802FFF771
:101CA000D4FF024602E0FFF7D0FF0246012AFAD035
:101CB000104600BD70B504460B464FF000064FF0CD
:101CC000080503B90BE0012B02D14FF4807606E042
:101CD000022B02D14FF4007601E04FF44076FFF77B
:101CE000DBFF0546082D2AD1AC48006820F440707F
:101CF000AA4908600846006840EA060008600846ED
:101D0000006820F0F80008600846006844F002010E
:101D100040EA0100A14908600846006840F48030AC
:101D20000860FFF7B9FF05469C48006820F00200F4
:101D30009A4908600846006820F0F80008602846C4
:101D400070BD30B503464FF000054FF00804FFF7B3
:101D5000A3FF044603B90BE0012B02D14FF48075B9
:101D600006E0022B02D14FF4007501E04FF44075FC
:101D7000082C1DD18948006820F44070874908600C
:101D80000846006840EA050008600846006840F020
:101D9000040008600846006840F480300860FFF7DF
:101DA0007BFF04467D48006820F004007B49086002
:101DB000204630BD70B5064614461D464FF0080358
:101DC000FFF76AFF0346082B1AD17448006820F415
:101DD0004070724908600846006840F4407008602E
:101DE0000846006840F00100086034607560FFF745
:101DF00053FF03466948006820F001006749086006
:101E0000184670BD30B503460C464FF00805FFF785
:101E100043FF0546082D19D16048006820F4407042
:101E20005E4908600846006840F400700860084693
:101E3000006840F0010008601C60FFF72DFF0546B8
:101E40005648006820F0010054490860284630BD1B
:101E500030B503460C464FF00805FFF71DFF054659
:101E6000082D19D14D48006820F440704B49086096
:101E70000846006840F4807008600846006840F03A
:101E8000010008601C80FFF707FF05464348006813
:101E900020F0010041490860284630BD30B50346B6
:101EA0000C464FF00805FFF7F7FE0546082D17D141
:101EB0003A48006820F440703849086008460068D5
:101EC00008600846006840F0010008601C70FFF7D9
:101ED000E3FE05463148006820F001002F49086004
:101EE000284630BD2D48001D006810F0010F04D0B9
:101EF0002C482D4908602D48086070472C48006820
:101F000040F001002A490860704730B503460C468E
:101F10004FF00805FFF7C0FE0546082D0ED134B17D
:101F20002448008820EA03002249088006E021486E
:101F3000008899B240EA01001E49088030BD10B502
:101F400003464FF00804FFF7A7FE0446082C01D112
:101F50001948037010BDF0B503460C4615464FF006
:101F6000FF064FF00807FFF797FE0746082F0BD133
:101F70000F48007800F00F0644EA060040EA05002A
:101F800040EA03000A490870F0BD0000003C02402E
:101F900023016745043C0240AB89EFCD103C024071
:101FA0000C3C02403B2A1908083C02407F6E5D4C05
:101FB000143C0240163C0240153C02402949097875
:101FC00021F00C01274A11701146097841EA0001FD
:101FD0001170704700B54FF008032248007840F0B8
:101FE000020020490870FFF757FE0346184600BD5F
:101FF0001C480068C0F3471070471A48801C0088CE
:1020000070474FF0000018490978AA2902D04FF014
:10201000010001E04FF0000070471248007800F026
:102020000C00704731B1114A126842EA00020F4BAE
:102030001A6005E00D4A126822EA00020B4B1A6092
:10204000704701464FF00000094A12680A4202D068
:102050004FF0010001E04FF00000704704490860B4
:1020600070470000143C0240153C0240103C024006
:102070000C3C024010B50446A148844208D101211D
:10208000084600F028FB0021012000F024FB5EE060
:102090009C48844208D10121022000F01CFB002151
:1020A000022000F018FB52E09748844208D1012139
:1020B000042000F010FB0021042000F00CFB46E09F
:1020C0009248844208D10121082000F004FB00213D
:1020D000082000F000FB3AE08D48844208D101213D
:1020E000102000F0F8FA0021102000F0F4FA2EE0A1
:1020F0008848844208D10121202000F0ECFA002118
:10210000202000F0E8FA22E08348844208D101212F
:10211000402000F0E0FA0021402000F0DCFA16E058
:102120007E48844208D10121802000F0D4FA0021A9
:10213000802000F0D0FA0AE07948844207D10121DA
:10214000801500F0C8FA0021A01500F0C4FA10BDF7
:10215000F0B50A464FF000010B460C4600BF59E0AF
:102160004FF0010505FA01F3156805EA03049C42E6
:102170004ED105684FEA41074FF0030606FA07F60D
:1021800025EA0605056015794FEA410605FA06F5C8
:10219000066845EA060505601579012D02D0157916
:1021A000022D22D185684FEA41074FF0030606FA57
:1021B00007F625EA0605856055794FEA410605FAD6
:1021C00006F5866845EA0605856045684FF0010614
:1021D00006FA01F625EA060545604568967906FA8D
:1021E00001F6B6B245EA06054560C5684FEA410703
:1021F0004FF0030606FA07F625EA0605C560D5790D
:102200004FEA410605FA06F5C66845EA0605C560C7
:1022100001F101011029A3D3F0BD4FF6FF71016058
:102220004FF00001017141718171C17170474FF42C
:10223000803242EA0102C261C161C261C269C269FF
:10224000704702464FF0000013690B4202D04FF076
:10225000010001E04FF0000070470146086980B2BC
:10226000704702464FF0000053690B4202D04FF016
:10227000010001E04FF0000070470146486980B25C
:10228000704701837047418370470AB1018300E0C2
:102290004183704741617047426982EA01024261AD
:1022A0007047F0B54FF000031C464FEA41754FEA06
:1022B000D56502FA05F34FEAE10600F1200555F86D
:1022C00026504FEA41764FEAD6674FF00F0606FADE
:1022D00007F625EA06054FEAE10700F1200646F871
:1022E00027504FEAE10600F1200555F8265045EA4F
:1022F00003044FEAE10600F1200545F82640F0BD51
:10230000000002400004024000080240000C0240AD
:10231000001002400014024000180240001C02405D
:1023200000200240F748006840F00100F5490860CD
:102330004FF00000F4490860F2480068F34900EAF1
:102340000100F0490860F24801F104010860ED481D
:10235000006820F48020EB4908604FF00000ED4950
:10236000086070474FF00001EB4A11701146087089
:10237000704710B501464FF00002134610464FEA71
:102380006112012A02D1DF4C236806E0022A02D141
:10239000E24C236801E0E24C236801F01F024FF099
:1023A000010404FA02F41C4202D04FF0010001E0E3
:1023B0004FF0000010BD70B54FF0000425462646D2
:1023C00000BF3120FFF7D5FF064604F10104B4F544
:1023D000A06F01D0002EF4D03120FFF7CAFF10B15A
:1023E0004FF0010501E04FF00005284670BD0146A1
:1023F0004FF00000C34A106820F0F80040EAC10026
:1024000010607047C749086070474FF00001C34A29
:1024100011701170012802D004280AD104E04FF095
:102420000101BE4A117005E04FF00501BB4A117071
:1024300000E000BF00BF7047BB490860704770B53F
:10244000049C41EA82154FF00106C6EB530645EAAB
:10245000064545EA000545EA0465B44E356070BDA1
:10246000B049086670474FEA801242EA0172B04BE9
:102470001A607047AB4988667047AA49C8647047BC
:1024800002464FF00000A04B186820F0EC6042EAD2
:10249000010343EA00009C4B1860704702464FF06E
:1024A0000000994B186820F0784042EA010343EAA3
:1024B0000000954B1860704701464FF00000924AAB
:1024C000106820F0030040EA0100106070478E4859
:1024D000006800F00C00704701464FF000008A4A87
:1024E000106820F0F00040EA0100106070470146DB
:1024F0004FF00000844A106820F4E05040EA0100E8
:102500001060704701464FF000007F4A106820F4C9
:10251000604040EAC10010607047F0B54FF0000124
:102520000A460C464FF002050E464FF00203764F66
:102530003F6807F00C0121B1042905D0082932D1E8
:1025400005E07C4F076031E07B4F07602EE0774F5E
:102550003F68C7F38056754F3F6807F03F035EB191
:10256000754FB7FBF3F7DFF8C4C1DCF800C0CCF35C
:10257000881C07FB0CF40AE06E4FB7FBF3F7DFF89B
:10258000ACC1DCF800C0CCF3881C07FB0CF4674F2F
:102590003F68C7F3014707F101074FEA4705B4FB5E
:1025A000F5F7076002E0634F076000BF00BF564FBA
:1025B0003F6807F0F0014FEA1111604F7A5C07683D
:1025C00027FA02F74760504F3F6807F4E0514FEA9F
:1025D00091215A4F7A5C476827FA02F787604A4F81
:1025E0003F6807F460414FEA5131544F7A5C4768C5
:1025F00027FA02F7C760F0BD4FF0000100F4407207
:10260000B2F5407F0AD1404A116821F4F8114C4AD2
:1026100000EA020242EA01013B4A11603F4A1268A5
:10262000C0F30B0342EA03023C4B1A607047454972
:102630000860704744490860704744490860704723
:1026400031B1434A126842EA0002414B1A6005E088
:102650003F4A126822EA00023D4B1A60704731B1CE
:102660003C4A126842EA00023A4B1A6005E0394AD5
:10267000126822EA0002374B1A60704731B1364ABD
:10268000126842EA0002344B1A6005E0324A1268CE
:1026900022EA0002304B1A60704731B12F4A1268AB
:1026A00042EA00022D4B1A6005E02C4A126822EA29
:1026B00000022A4B1A60704731B1294A126842EA77
:1026C0000002274B1A6005E0254A126822EA000240
:1026D000234B1A60704731B1224A126842EA000265
:1026E000204B1A6005E01F4A126822EA00021D4BC7
:1026F0001A607047D1B31C4A126842EA00021A4BB2
:102700001A603AE00038024008380240FFFFF6FE47
:10271000103000240C380240023802407038024069
:102720007438024000004742800E4742043802409D
:10273000843802400024F40040787D014C000020E1
:10274000FFFCFF0F3C0E4742400E47425C014742F0
:1027500030380240343802403838024040380240B5
:10276000443802401038024014380240FFE7544A0F
:10277000126822EA0002524B1A60704731B1514A86
:10278000126842EA00024F4B1A6005E04D4A126897
:1027900022EA00024B4B1A60704731B14A4A126874
:1027A00042EA0002484B1A6005E0474A126822EAF2
:1027B0000002454B1A60704731B1444A126842EA40
:1027C0000002424B1A6005E0404A126822EA000209
:1027D0003E4B1A60704731B13D4A126842EA00022E
:1027E0003B4B1A6005E03A4A126822EA0002384B75
:1027F0001A60704731B1374A126842EA0002354B1D
:102800001A6005E0334A126822EA0002314B1A606E
:10281000704731B1304A126842EA00022E4B1A600A
:1028200005E02D4A126822EA00022B4B1A6070471D
:1028300031B12A4A126842EA0002284B1A6005E0C8
:10284000264A126822EA0002244B1A60704731B10E
:10285000234A126842EA0002214B1A6005E0204A2E
:10286000126822EA00021E4B1A60704731B11D4AFD
:10287000127842EA00021B4B1A7008E0194A1278DB
:102880006FEA0003DBB202EA0302164B1A707047CC
:102890001548006840F08070134908607047014691
:1028A0004FF00000114A12680A4202D04FF00100B6
:1028B00001E04FF0000070470D49087070470000BC
:1028C00014380240183802402038024024380240B0
:1028D00050380240543802405838024060380240B4
:1028E000643802400D380240743802400C3802400F
:1028F0000E38024010B50446FA48844208D101213E
:102900001020FFF759FF00211020FFF755FF3EE090
:10291000F548844209D101214804FFF73EFF002118
:102920004FF40030FFF739FF31E0F048844209D11D
:1029300001218804FFF731FF00214FF48020FFF7C9
:102940002CFF24E0EA48844209D10121C804FFF7A2
:1029500024FF00214FF40020FFF71FFF17E0E54898
:10296000844209D101210805FFF717FF00214FF428
:102970008010FFF712FF0AE0DF48844207D10121EF
:102980002020FFF719FF00212020FFF715FF10BDC1
:102990002DE9FF4705460E464FF00004A14600BF53
:1029A000A046B08900B100BF2C8A24F44054F088BE
:1029B00040EA04042C82AC8941F20C6024EA000451
:1029C000B088318940EA0100718940EA010040EA9B
:1029D0000404AC81AC8A24F44074B08940EA040455
:1029E000AC826846FFF799FDBE48854202D0C248D6
:1029F000854202D1DDF80C9001E0DDF80890A8894D
:102A000010F4004F09D009EBC90000EB0910316840
:102A10004FEA4101B0FBF1F708E009EBC90000EB18
:102A2000091031684FEA8101B0FBF1F74FF0640003
:102A3000B7FBF0F04FEA00144FEA14104FF06401B6
:102A400001FB1078A88910F4004F0AD04FF0320033
:102A500000EBC800B0FBF1F000F0070040EA04040E
:102A60000BE04FF0320000EB08104FF06401B0FBB8
:102A7000F1F000F00F0040EA04042C81BDE8FF876C
:102A80004FF4165101604FF000018180C180018137
:102A90004FF00C0141814FF000018181704710B56A
:102AA00002464FF00000108A20F470600B884C88BA
:102AB00043EA04038C8843EA0403CC8843EA040312
:102AC00043EA0000108210BD4FF0000101804180F8
:102AD0008180C180704721B1828942F40052828195
:102AE00005E082894DF6FF7302EA03028281704796
:102AF000028B02F47F420283028B42EA01020283CC
:102B0000704721B1828942F40042828103E08289C8
:102B1000C2F30E028281704721B1828A42F40062C0
:102B2000828205E0828A4FF2FF7302EA0302828208
:102B30007047C1F308028280704701468888C0F35D
:102B400008007047028A4FF6F07302EA030202821D
:102B5000028A42EA01020282704721B1828942F070
:102B60000202828105E082894FF6FD7302EA0302C8
:102B70008281704782894FF2FF7302EA03028281E9
:102B8000828942EA010282817047028A4FF6DF732E
:102B900002EA03020282028A42EA010202827047CA
:102BA00021B1028A42F48042028205E0028A4BF699
:102BB000FF7302EA030202827047818941F001013A
:102BC0008181704721B1828A42F00802828205E049
:102BD000828A4FF6F77302EA030282827047028B01
:102BE000D2B20283028B42EA01220283704721B1F2
:102BF000828A42F02002828205E0828A4FF6DF73E9
:102C000002EA03028282704721B1828A42F01002F6
:102C1000828205E0828A4FF6EF7302EA0302828223
:102C20007047828A4FF6FB7302EA03028282828A2D
:102C300042EA01028282704721B1828A42F0020296
:102C4000828205E0828A4FF6FD7302EA03028282E5
:102C5000704710B522B1838A43EA0103838206E0FC
:102C6000838A6FEA0104A4B203EA0403838210BDDD
:102C7000F0B503464FF00004264625462046A1F550
:102C800010676A3F00D100BF1846C1F3421401F03B
:102C90001F064FF0010707FA06F5012C02D100F1DB
:102CA0000C0006E0022C02D100F1100001E000F15E
:102CB000140022B1076847EA0507076003E00768C8
:102CC00027EA05070760F0BD02464FF00000B1F5A6
:102CD000007F00D100BF13880B420FD04FF00100DE
:102CE0000EE0000000100140004400400048004099
:102CF000004C004000500040001401404FF0000024
:102D0000704701F40072B2F5007F00D100BF6FEA96
:102D100001020280704770B502464FF0000423465E
:102D20001D461846A1F510666A3E00D100BFC1F3EA
:102D3000421501F01F034FF0010606FA03F3012DBF
:102D400003D1968906EA030308E0022D03D1168A0F
:102D500006EA030302E0968A06EA03034FEA212407
:102D60004FF0010606FA04F4168806EA04041BB1C3
:102D700014B14FF0010001E04FF0000070BD10B53C
:102D80004FF000021346A1F510646A3C00D100BF69
:102D90004FEA21224FF0010404FA02F4A3B26FEAD1
:102DA0000304048010BD000009488047094800471B
:102DB000FEE7FEE7FEE7FEE7FEE7FEE7FEE7FEE7EB
:102DC000FEE7FEE704480549054A064B7047000048
:102DD000EF02000885010008D0090120D01301206E
:102DE000D00B0120D00B01201CB50446D14951F86D
:102DF00024004FF00101FFF723FCCF4830F8140006
:102E000000904FF001008DF804004FF000008DF8A5
:102E100006004FF001008DF807004FF002008DF81A
:102E20000500C64951F824006946FFF791F91CBD19
:102E3000C14931F81010C14A52F82020518370471F
:102E4000BD4931F81010BD4A52F820201183704757
:102E5000BA4951F820104969B74A32F8102081EA7E
:102E60000201B64A52F820205161704770B590B007
:102E700004460D4642F210764FF001014FF48000F7
:102E8000FFF7DEFBAE48FEF7A3FC00BFAC48FEF741
:102E9000CEFD0028FAD14FF0206001902868039001
:102EA000A84850F8240002904FF0400004904FF0E2
:102EB0000000059006904FF4806007904FF00000EE
:102EC000089009900A904FF400300B904FF00000EA
:102ED0000C904FF003000D904FF000000E900F90FB
:102EE00001A99748FEF70AFD974951F824000122ED
:102EF0008021FFF7AEFE00219148FEF748FD10B09B
:102F000070BDFEB504460E461546904951F8241092
:102F10008F4A52F8242041EA02004FF00101FFF7E6
:102F20008FFB0CB1012C05D18A4951F824000121F5
:102F3000FFF7C2FB884B1A5D884B195D884B53F82D
:102F40002400FFF7AEF9874B1A5D874B195D874B5D
:102F500053F82400FFF7A5F94FF000008DF80A00A0
:102F60004FF001008DF80B004FF002008DF80800C3
:102F70007F4830F8140001904FF002008DF80900EE
:102F8000774951F8240001A9FFF7E2F84FF0020059
:102F90008DF80800774830F814000190734951F813
:102FA000240001A9FFF7D4F8674951F82400002153
:102FB000FFF7A7FD644951F824003146FFF7E8FC0C
:102FC0004FF4E060FEF780FB6B48005D8DF8000079
:102FD0004FF000008DF801008DF802004FF0010065
:102FE0008DF803006846FEF775FB574951F8240039
:102FF000012240F22661FFF73BFE534951F82400BD
:1030000040F22661FFF7BBFE4F4951F82400012230
:1030100040F22551FFF72CFE4B4951F824000122C4
:103020004FF45871FFF724FE29462046FFF71EFF94
:103030004FF046008DF800004FF000008DF80100C1
:103040004FF001008DF802008DF803006846FEF78E
:1030500041FB012210213A48FEF72EFD4FF020518E
:103060003748FEF715FD384951F824000121FFF7D4
:1030700032FDFEBD38B50446334951F824004FF007
:10308000000240F22661FFF7F3FD2F4951F82400BA
:10309000002240F22551FFF7EBFD2B4951F82400A7
:1030A00000224FF45871FFF7E3FD002280212448ED
:1030B000FEF702FD002210212148FEF7FDFC4FF033
:1030C00046008DF800004FF000008DF803006846C0
:1030D000FEF700FB2848005D8DF800004FF000006F
:1030E0008DF803006846FEF7F5FA174951F82400F9
:1030F0000021FFF7F0FC00211148FEF748FC0021F9
:103100004FF48000FFF79CFA124951F82400002187
:10311000FFF7C3FA4FF000004FF0E021086138BD1F
:103120004FF0000102E000BF01F101018142FAD33A
:1031300070470000D8350008C03500085C0000204A
:10314000B8640240343600088C00002010360008B5
:1031500018360008083600082C3600082836000803
:10316000940000202E3600082A3600089C0000201B
:103170002036000824360008303600084FF00002E0
:103180000429C0F0128010F0030C00F01B80CCF179
:10319000040CBCF1020F18BF00F8012BA8BF20F8E7
:1031A000022BA1EB0C0100F00DB85FEAC17C24BF3B
:1031B00000F8012B00F8012B48BF00F8012B7047E5
:1031C0004FF0000200B5134694469646203922BFC0
:1031D000A0E80C50A0E80C50B1F12001BFF4F7AF0B
:1031E000090728BFA0E80C5048BF0CC05DF804EBED
:1031F000890028BF40F8042B08BF704748BF20F85B
:10320000022B11F0804F18BF00F8012B7047704758
:1032100070477047754600F029F8AE4605006946CC
:10322000534620F00700854618B020B5FFF7CAFDC9
:10323000BDE820404FF000064FF000074FF00008B7
:103240004FF0000B21F00701AC46ACE8C009ACE838
:10325000C009ACE8C009ACE8C0098D467047044617
:10326000AFF300802046FCF7D6FF0000004870470F
:103270007009012000487047740901200149182095
:10328000ABBEFEE726000200704700004FF00001D1
:10329000084A1170084A1180084A1180084A1180B2
:1032A000084A1170084A117010B14FF001011170F5
:1032B000704700003B00002038000020CC080120AF
:1032C0003C0000203E0000203A00002010B50446DB
:1032D00033480088082846D2DFE800F004091D20A2
:1032E00028373F424FEA04202E49088042E02D480B
:1032F000008820442B4908800846008844F22001B9
:10330000884203DC27480088082803DA0020FFF7FA
:10331000BDFF10BD2EE0234884702BE01CB10020BF
:10332000FFF7B4FFF5E71F48C47023E01E4800789C
:10333000A04205D0FF2C03D00020FFF7A7FFE8E74D
:10334000194800781749087114E01CB10020FFF7F4
:103350009DFFDEE7134844710CE01248847109E0D8
:103360001048C47106E00E480088A0F108000F491B
:103370000C5400BF00BF0A48008800F10100084952
:10338000088008480088002808DD06480088801C5E
:103390000988884202DA0020FFF778FF00BFB8E70B
:1033A00038000020CC080120A4000020CC400020E0
:1033B00010B5FFF75FFF4FF00001016010BD000086
:1033C0002110422063308440A550C660E770088118
:1033D00029914AA16BB18CC1ADD1CEE1EFF131128F
:1033E000100273325222B5529442F772D662399368
:1033F00018837BB35AA3BDD39CC3FFF3DEE36224DF
:10340000433420040114E664C774A44485546AA5B7
:103410004BB528850995EEE5CFF5ACC58DD553366E
:10342000722611163006D776F6669556B4465BB707
:103430007AA719973887DFF7FEE79DD7BCC7C4483E
:10344000E5588668A7784008611802282338CCC957
:10345000EDD98EE9AFF9488969990AA92BB9F55ACE
:10346000D44AB77A966A711A500A333A122AFDDBA7
:10347000DCCBBFFB9EEB799B588B3BBB1AABA66C9E
:10348000877CE44CC55C222C033C600C411CAEEDF7
:103490008FFDECCDCDDD2AAD0BBD688D499D977EAE
:1034A000B66ED55EF44E133E322E511E700E9FFF47
:1034B000BEEFDDDFFCCF1BBF3AAF599F788F8891FD
:1034C000A981CAB1EBA10CD12DC14EF16FE18010E1
:1034D000A100C230E3200450254046706760B983E4
:1034E0009893FBA3DAB33DC31CD37FE35EF3B10231
:1034F0009012F322D2323542145277625672EAB5F4
:10350000CBA5A89589856EF54FE52CD50DC5E23480
:10351000C324A01481046674476424540544DBA7C3
:10352000FAB79987B8975FE77EF71DC73CD7D326D0
:10353000F2369106B01657667676154634564CD953
:103540006DC90EF92FE9C899E9898AB9ABA9445820
:10355000654806782768C018E1088238A3287DCB23
:103560005CDB3FEB1EFBF98BD89BBBAB9ABB754A70
:10357000545A376A167AF10AD01AB32A923A2EFDB3
:103580000FED6CDD4DCDAABD8BADE89DC98D267CC0
:10359000076C645C454CA23C832CE01CC10C1FEF03
:1035A0003EFF5DCF7CDF9BAFBABFD98FF89F176E10
:1035B000367E554E745E932EB23ED10EF01E000044
:1035C00000018000400080000001000200040008AB
:1035D000800000040008001001000000010000004D
:1035E000010000002000000020000000200000007A
:1035F0002000000020000000010000000400000086
:103600000400000004000000200000001000000082
:1036100004000000010000000400000001000000A0
:1036200040000002800000040609070A0807080796
:103630004725000004140140041001405C360008D6
:1036400000000020A4000000C001000800370008AE
:10365000A40000202C130100DC010008000E270745
:103660000000000000000000010203040607080932
:10367000000000000000000000000000000000004A
:10368000000000000000000000000000000000003A
:10369000000000000000000000000000000000002A
:1036A0000000000000000000000000000102030410
:1036B000010203040607080900000240000002405E
:1036C00000000240001402400014024000140240B6
:1036D00000140240001402400000024000080240B2
:1036E00000080240000802400014014000100140A0
:1036F00000080240000002400008024000000240B2
:040000050800018569
:00000001FF
